{
  "_format": "hh-sol-artifact-1",
  "contractName": "Exchange",
  "sourceName": "contracts/Exchange.sol",
  "abi": [
    {
      "anonymous": false,
      "inputs": [
        {
          "indexed": true,
          "internalType": "string",
          "name": "aggregatorId",
          "type": "string"
        }
      ],
      "name": "AdapterRemoved",
      "type": "event"
    },
    {
      "anonymous": false,
      "inputs": [
        {
          "indexed": true,
          "internalType": "string",
          "name": "aggregatorId",
          "type": "string"
        },
        {
          "indexed": true,
          "internalType": "address",
          "name": "addr",
          "type": "address"
        }
      ],
      "name": "AdapterSet",
      "type": "event"
    },
    {
      "anonymous": false,
      "inputs": [
        {
          "indexed": true,
          "internalType": "address",
          "name": "previousOwner",
          "type": "address"
        },
        {
          "indexed": true,
          "internalType": "address",
          "name": "newOwner",
          "type": "address"
        }
      ],
      "name": "OwnershipTransferred",
      "type": "event"
    },
    {
      "anonymous": false,
      "inputs": [
        {
          "indexed": false,
          "internalType": "address",
          "name": "account",
          "type": "address"
        }
      ],
      "name": "Paused",
      "type": "event"
    },
    {
      "anonymous": false,
      "inputs": [
        {
          "indexed": true,
          "internalType": "string",
          "name": "aggregatorId",
          "type": "string"
        },
        {
          "indexed": true,
          "internalType": "address",
          "name": "sender",
          "type": "address"
        }
      ],
      "name": "Swap",
      "type": "event"
    },
    {
      "anonymous": false,
      "inputs": [
        {
          "indexed": false,
          "internalType": "address",
          "name": "account",
          "type": "address"
        }
      ],
      "name": "Unpaused",
      "type": "event"
    },
    {
      "inputs": [
        {
          "internalType": "string",
          "name": "aggregatorId",
          "type": "string"
        }
      ],
      "name": "adapterFee",
      "outputs": [
        {
          "internalType": "uint8",
          "name": "fee",
          "type": "uint8"
        }
      ],
      "stateMutability": "view",
      "type": "function"
    },
    {
      "inputs": [
        {
          "internalType": "string",
          "name": "",
          "type": "string"
        }
      ],
      "name": "adapterRemoved",
      "outputs": [
        {
          "internalType": "bool",
          "name": "",
          "type": "bool"
        }
      ],
      "stateMutability": "view",
      "type": "function"
    },
    {
      "inputs": [
        {
          "internalType": "string",
          "name": "",
          "type": "string"
        }
      ],
      "name": "adapters",
      "outputs": [
        {
          "internalType": "address",
          "name": "",
          "type": "address"
        }
      ],
      "stateMutability": "view",
      "type": "function"
    },
    {
      "inputs": [],
      "name": "owner",
      "outputs": [
        {
          "internalType": "address",
          "name": "",
          "type": "address"
        }
      ],
      "stateMutability": "view",
      "type": "function"
    },
    {
      "inputs": [],
      "name": "pauseSwaps",
      "outputs": [],
      "stateMutability": "nonpayable",
      "type": "function"
    },
    {
      "inputs": [],
      "name": "paused",
      "outputs": [
        {
          "internalType": "bool",
          "name": "",
          "type": "bool"
        }
      ],
      "stateMutability": "view",
      "type": "function"
    },
    {
      "inputs": [
        {
          "internalType": "string",
          "name": "aggregatorId",
          "type": "string"
        }
      ],
      "name": "removeAdapter",
      "outputs": [],
      "stateMutability": "nonpayable",
      "type": "function"
    },
    {
      "inputs": [],
      "name": "renounceOwnership",
      "outputs": [],
      "stateMutability": "nonpayable",
      "type": "function"
    },
    {
      "inputs": [
        {
          "internalType": "string",
          "name": "aggregatorId",
          "type": "string"
        },
        {
          "internalType": "address",
          "name": "addr",
          "type": "address"
        }
      ],
      "name": "setAdapter",
      "outputs": [],
      "stateMutability": "nonpayable",
      "type": "function"
    },
    {
      "inputs": [
        {
          "internalType": "string",
          "name": "aggregatorId",
          "type": "string"
        },
        {
          "internalType": "contract IERC20",
          "name": "tokenFrom",
          "type": "address"
        },
        {
          "internalType": "contract IERC20",
          "name": "tokenTo",
          "type": "address"
        },
        {
          "internalType": "uint256",
          "name": "amountFrom",
          "type": "uint256"
        },
        {
          "internalType": "uint256",
          "name": "amountTo",
          "type": "uint256"
        },
        {
          "internalType": "uint256",
          "name": "deadline",
          "type": "uint256"
        },
        {
          "internalType": "bool",
          "name": "feeOnTransfer",
          "type": "bool"
        }
      ],
      "name": "swap",
      "outputs": [],
      "stateMutability": "payable",
      "type": "function"
    },
    {
      "inputs": [
        {
          "internalType": "address",
          "name": "newOwner",
          "type": "address"
        }
      ],
      "name": "transferOwnership",
      "outputs": [],
      "stateMutability": "nonpayable",
      "type": "function"
    },
    {
      "inputs": [],
      "name": "unpauseSwaps",
      "outputs": [],
      "stateMutability": "nonpayable",
      "type": "function"
    }
  ],
  "bytecode": "0x608060405234801561001057600080fd5b5061001a33610030565b6000805460ff60a01b1916905560018055610080565b600080546001600160a01b038381166001600160a01b0319831681178455604051919092169283917f8be0079c531659141344cd1fd0a4f28419497f9722a3daafe3b4186f6b6457e09190a35050565b6112a48061008f6000396000f3fe6080604052600436106100c75760003560e01c80639804a38011610074578063b84f5d1e1161004e578063b84f5d1e146101fd578063bad50a471461023e578063f2fde38b1461027057600080fd5b80639804a3801461019a578063ae5ba2ae146101af578063b5268389146101c257600080fd5b80635c975abb116100a55780635c975abb14610123578063715018a6146101535780638da5cb5b1461016857600080fd5b806339122461146100cc5780633ef11fd7146100ee578063558b7dd11461010e575b600080fd5b3480156100d857600080fd5b506100ec6100e7366004610f6e565b610290565b005b3480156100fa57600080fd5b506100ec610109366004610fc5565b610475565b34801561011a57600080fd5b506100ec6105b1565b34801561012f57600080fd5b50600054600160a01b900460ff165b60405190151581526020015b60405180910390f35b34801561015f57600080fd5b506100ec6105c3565b34801561017457600080fd5b506000546001600160a01b03165b6040516001600160a01b03909116815260200161014a565b3480156101a657600080fd5b506100ec6105d5565b6100ec6101bd366004611015565b6105e5565b3480156101ce57600080fd5b5061013e6101dd3660046110dd565b805160208183018101805160038252928201919093012091525460ff1681565b34801561020957600080fd5b506101826102183660046110dd565b80516020818301810180516002825292820191909301209152546001600160a01b031681565b34801561024a57600080fd5b5061025e610259366004610fc5565b61069b565b60405160ff909116815260200161014a565b34801561027c57600080fd5b506100ec61028b36600461118e565b6107c4565b6000816001600160a01b03163b116102ef5760405162461bcd60e51b815260206004820152601f60248201527f457461537761703a20414441505445525f4e4f545f415f434f4e54524143540060448201526064015b60405180910390fd5b600383836040516103019291906111ab565b9081526040519081900360200190205460ff16156103615760405162461bcd60e51b815260206004820152601860248201527f457461537761703a20414441505445525f52454d4f564544000000000000000060448201526064016102e6565b60006001600160a01b03166002848460405161037e9291906111ab565b908152604051908190036020019020546001600160a01b0316146103e45760405162461bcd60e51b815260206004820152601760248201527f457461537761703a20414441505445525f45584953545300000000000000000060448201526064016102e6565b80600284846040516103f79291906111ab565b90815260405190819003602001812080546001600160a01b0393841673ffffffffffffffffffffffffffffffffffffffff199091161790559082169061044090859085906111ab565b604051908190038120907ff9648cbc19f288e0f271f7e95311238912bf1ea8225e636a13bb1d259126002190600090a3505050565b61047d610854565b60006001600160a01b03166002838360405161049a9291906111ab565b908152604051908190036020019020546001600160a01b0316036105005760405162461bcd60e51b815260206004820152601f60248201527f457461537761703a20414441505445525f444f45535f4e4f545f45584953540060448201526064016102e6565b600282826040516105129291906111ab565b908152604051908190036020018120805473ffffffffffffffffffffffffffffffffffffffff1916905560019060039061054f90859085906111ab565b908152604051908190036020018120805492151560ff199093169290921790915561057d90839083906111ab565b604051908190038120907fb00061f7cc154fc23eb34671ab724fc7eb7b806abae871abae8f1eafce97213590600090a25050565b6105b9610854565b6105c16108ae565b565b6105cb610854565b6105c1600061090e565b6105dd610854565b6105c161096b565b6105ed6109a7565b6105f5610a01565b60006001600160a01b0316600289896040516106129291906111ab565b908152604051908190036020019020546001600160a01b0316036106785760405162461bcd60e51b815260206004820152601f60248201527f457461537761703a20414441505445525f444f45535f4e4f545f45584953540060448201526064016102e6565b6106888888888888888888610a5a565b61069160018055565b5050505050505050565b6000806001600160a01b0316600284846040516106b99291906111ab565b908152604051908190036020019020546001600160a01b03160361071f5760405162461bcd60e51b815260206004820152601f60248201527f457461537761703a20414441505445525f444f45535f4e4f545f45584953540060448201526064016102e6565b600283836040516107319291906111ab565b9081526040805160209281900383018120547fdc3ef68500000000000000000000000000000000000000000000000000000000825291516001600160a01b039092169263dc3ef685926004808401938290030181865afa158015610799573d6000803e3d6000fd5b505050506040513d601f19601f820116820180604052508101906107bd91906111bb565b9392505050565b6107cc610854565b6001600160a01b0381166108485760405162461bcd60e51b815260206004820152602660248201527f4f776e61626c653a206e6577206f776e657220697320746865207a65726f206160448201527f646472657373000000000000000000000000000000000000000000000000000060648201526084016102e6565b6108518161090e565b50565b6000546001600160a01b031633146105c15760405162461bcd60e51b815260206004820181905260248201527f4f776e61626c653a2063616c6c6572206973206e6f7420746865206f776e657260448201526064016102e6565b6108b66109a7565b6000805460ff60a01b1916600160a01b1790557f62e78cea01bee320cd4e420270b5ea74000d11b0c9f74754ebdbfc544b05a2586108f13390565b6040516001600160a01b03909116815260200160405180910390a1565b600080546001600160a01b0383811673ffffffffffffffffffffffffffffffffffffffff19831681178455604051919092169283917f8be0079c531659141344cd1fd0a4f28419497f9722a3daafe3b4186f6b6457e09190a35050565b610973610b95565b6000805460ff60a01b191690557f5db9ee0a495bf2e6ff9c91a7834c1ba4fdd244a5e8aa4e537bd38aeae4b073aa336108f1565b600054600160a01b900460ff16156105c15760405162461bcd60e51b815260206004820152601060248201527f5061757361626c653a207061757365640000000000000000000000000000000060448201526064016102e6565b600260015403610a535760405162461bcd60e51b815260206004820152601f60248201527f5265656e7472616e637947756172643a207265656e7472616e742063616c6c0060448201526064016102e6565b6002600155565b600060028989604051610a6e9291906111ab565b908152604051908190036020019020546001600160a01b039081169150871615610aa757610aa76001600160a01b038816338388610bee565b6040517f77e389660000000000000000000000000000000000000000000000000000000081523360048201526001600160a01b0388811660248301528781166044830152606482018790526084820186905260a4820185905283151560c48301528216906377e3896690349060e4016000604051808303818588803b158015610b2f57600080fd5b505af1158015610b43573d6000803e3d6000fd5b5050604051339350610b5a92508c91508b906111ab565b604051908190038120907fbeee1e6e7fe307ddcf84b0a16137a4430ad5e2480fc4f4a8e250ab56ccd7630d90600090a3505050505050505050565b600054600160a01b900460ff166105c15760405162461bcd60e51b815260206004820152601460248201527f5061757361626c653a206e6f742070617573656400000000000000000000000060448201526064016102e6565b604080516001600160a01b0385811660248301528416604482015260648082018490528251808303909101815260849091019091526020810180517bffffffffffffffffffffffffffffffffffffffffffffffffffffffff167f23b872dd00000000000000000000000000000000000000000000000000000000179052610c76908590610c7c565b50505050565b6000610cd1826040518060400160405280602081526020017f5361666545524332303a206c6f772d6c6576656c2063616c6c206661696c6564815250856001600160a01b0316610d699092919063ffffffff16565b9050805160001480610cf2575080806020019051810190610cf291906111de565b610d645760405162461bcd60e51b815260206004820152602a60248201527f5361666545524332303a204552433230206f7065726174696f6e20646964206e60448201527f6f7420737563636565640000000000000000000000000000000000000000000060648201526084016102e6565b505050565b6060610d788484600085610d80565b949350505050565b606082471015610df85760405162461bcd60e51b815260206004820152602660248201527f416464726573733a20696e73756666696369656e742062616c616e636520666f60448201527f722063616c6c000000000000000000000000000000000000000000000000000060648201526084016102e6565b600080866001600160a01b03168587604051610e14919061121f565b60006040518083038185875af1925050503d8060008114610e51576040519150601f19603f3d011682016040523d82523d6000602084013e610e56565b606091505b5091509150610e6787838387610e72565b979650505050505050565b60608315610ee1578251600003610eda576001600160a01b0385163b610eda5760405162461bcd60e51b815260206004820152601d60248201527f416464726573733a2063616c6c20746f206e6f6e2d636f6e747261637400000060448201526064016102e6565b5081610d78565b610d788383815115610ef65781518083602001fd5b8060405162461bcd60e51b81526004016102e6919061123b565b60008083601f840112610f2257600080fd5b50813567ffffffffffffffff811115610f3a57600080fd5b602083019150836020828501011115610f5257600080fd5b9250929050565b6001600160a01b038116811461085157600080fd5b600080600060408486031215610f8357600080fd5b833567ffffffffffffffff811115610f9a57600080fd5b610fa686828701610f10565b9094509250506020840135610fba81610f59565b809150509250925092565b60008060208385031215610fd857600080fd5b823567ffffffffffffffff811115610fef57600080fd5b610ffb85828601610f10565b90969095509350505050565b801515811461085157600080fd5b60008060008060008060008060e0898b03121561103157600080fd5b883567ffffffffffffffff81111561104857600080fd5b6110548b828c01610f10565b909950975050602089013561106881610f59565b9550604089013561107881610f59565b9450606089013593506080890135925060a0890135915060c089013561109d81611007565b809150509295985092959890939650565b7f4e487b7100000000000000000000000000000000000000000000000000000000600052604160045260246000fd5b6000602082840312156110ef57600080fd5b813567ffffffffffffffff8082111561110757600080fd5b818401915084601f83011261111b57600080fd5b81358181111561112d5761112d6110ae565b604051601f8201601f19908116603f01168101908382118183101715611155576111556110ae565b8160405282815287602084870101111561116e57600080fd5b826020860160208301376000928101602001929092525095945050505050565b6000602082840312156111a057600080fd5b81356107bd81610f59565b8183823760009101908152919050565b6000602082840312156111cd57600080fd5b815160ff811681146107bd57600080fd5b6000602082840312156111f057600080fd5b81516107bd81611007565b60005b838110156112165781810151838201526020016111fe565b50506000910152565b600082516112318184602087016111fb565b9190910192915050565b602081526000825180602084015261125a8160408501602087016111fb565b601f01601f1916919091016040019291505056fea264697066735822122026521bb5c29dbcc36b501084dccad27b7208e46011906585251bbbd13d5e1e1464736f6c63430008130033",
  "linkReferences": {},
  "deployedLinkReferences": {}
}