{
  "_format": "hh-sol-artifact-1",
  "contractName": "Exchange",
  "sourceName": "contracts/Exchange.sol",
  "abi": [
    {
      "anonymous": false,
      "inputs": [
        {
          "indexed": true,
          "internalType": "string",
          "name": "aggregatorId",
          "type": "string"
        }
      ],
      "name": "AdapterRemoved",
      "type": "event"
    },
    {
      "anonymous": false,
      "inputs": [
        {
          "indexed": true,
          "internalType": "string",
          "name": "aggregatorId",
          "type": "string"
        },
        {
          "indexed": true,
          "internalType": "address",
          "name": "addr",
          "type": "address"
        }
      ],
      "name": "AdapterSet",
      "type": "event"
    },
    {
      "anonymous": false,
      "inputs": [
        {
          "indexed": true,
          "internalType": "address",
          "name": "previousOwner",
          "type": "address"
        },
        {
          "indexed": true,
          "internalType": "address",
          "name": "newOwner",
          "type": "address"
        }
      ],
      "name": "OwnershipTransferred",
      "type": "event"
    },
    {
      "anonymous": false,
      "inputs": [
        {
          "indexed": false,
          "internalType": "address",
          "name": "account",
          "type": "address"
        }
      ],
      "name": "Paused",
      "type": "event"
    },
    {
      "anonymous": false,
      "inputs": [
        {
          "indexed": true,
          "internalType": "string",
          "name": "aggregatorId",
          "type": "string"
        },
        {
          "indexed": true,
          "internalType": "address",
          "name": "sender",
          "type": "address"
        }
      ],
      "name": "Swap",
      "type": "event"
    },
    {
      "anonymous": false,
      "inputs": [
        {
          "indexed": false,
          "internalType": "address",
          "name": "account",
          "type": "address"
        }
      ],
      "name": "Unpaused",
      "type": "event"
    },
    {
      "inputs": [
        {
          "internalType": "string",
          "name": "aggregatorId",
          "type": "string"
        }
      ],
      "name": "adapterFee",
      "outputs": [
        {
          "internalType": "uint8",
          "name": "fee",
          "type": "uint8"
        }
      ],
      "stateMutability": "view",
      "type": "function"
    },
    {
      "inputs": [
        {
          "internalType": "string",
          "name": "",
          "type": "string"
        }
      ],
      "name": "adapterRemoved",
      "outputs": [
        {
          "internalType": "bool",
          "name": "",
          "type": "bool"
        }
      ],
      "stateMutability": "view",
      "type": "function"
    },
    {
      "inputs": [
        {
          "internalType": "string",
          "name": "",
          "type": "string"
        }
      ],
      "name": "adapters",
      "outputs": [
        {
          "internalType": "address",
          "name": "",
          "type": "address"
        }
      ],
      "stateMutability": "view",
      "type": "function"
    },
    {
      "inputs": [],
      "name": "owner",
      "outputs": [
        {
          "internalType": "address",
          "name": "",
          "type": "address"
        }
      ],
      "stateMutability": "view",
      "type": "function"
    },
    {
      "inputs": [],
      "name": "pauseSwaps",
      "outputs": [],
      "stateMutability": "nonpayable",
      "type": "function"
    },
    {
      "inputs": [],
      "name": "paused",
      "outputs": [
        {
          "internalType": "bool",
          "name": "",
          "type": "bool"
        }
      ],
      "stateMutability": "view",
      "type": "function"
    },
    {
      "inputs": [
        {
          "internalType": "string",
          "name": "aggregatorId",
          "type": "string"
        }
      ],
      "name": "removeAdapter",
      "outputs": [],
      "stateMutability": "nonpayable",
      "type": "function"
    },
    {
      "inputs": [],
      "name": "renounceOwnership",
      "outputs": [],
      "stateMutability": "nonpayable",
      "type": "function"
    },
    {
      "inputs": [
        {
          "internalType": "string",
          "name": "aggregatorId",
          "type": "string"
        },
        {
          "internalType": "address",
          "name": "addr",
          "type": "address"
        }
      ],
      "name": "setAdapter",
      "outputs": [],
      "stateMutability": "nonpayable",
      "type": "function"
    },
    {
      "inputs": [
        {
          "internalType": "string",
          "name": "aggregatorId",
          "type": "string"
        },
        {
          "internalType": "contract IERC20",
          "name": "tokenFrom",
          "type": "address"
        },
        {
          "internalType": "bytes",
          "name": "pathEncode",
          "type": "bytes"
        },
        {
          "internalType": "uint256",
          "name": "amountFrom",
          "type": "uint256"
        },
        {
          "internalType": "uint256",
          "name": "amountTo",
          "type": "uint256"
        },
        {
          "internalType": "uint256",
          "name": "deadline",
          "type": "uint256"
        },
        {
          "internalType": "bool",
          "name": "feeOnTransfer",
          "type": "bool"
        }
      ],
      "name": "swap",
      "outputs": [],
      "stateMutability": "payable",
      "type": "function"
    },
    {
      "inputs": [
        {
          "internalType": "address",
          "name": "newOwner",
          "type": "address"
        }
      ],
      "name": "transferOwnership",
      "outputs": [],
      "stateMutability": "nonpayable",
      "type": "function"
    },
    {
      "inputs": [],
      "name": "unpauseSwaps",
      "outputs": [],
      "stateMutability": "nonpayable",
      "type": "function"
    }
  ],
  "bytecode": "0x608060405234801561001057600080fd5b5061001a33610030565b6000805460ff60a01b1916905560018055610080565b600080546001600160a01b038381166001600160a01b0319831681178455604051919092169283917f8be0079c531659141344cd1fd0a4f28419497f9722a3daafe3b4186f6b6457e09190a35050565b6113128061008f6000396000f3fe6080604052600436106100c75760003560e01c80638da5cb5b11610074578063b84f5d1e1161004e578063b84f5d1e146101fd578063bad50a471461023e578063f2fde38b1461027057600080fd5b80638da5cb5b1461017b5780639804a380146101ad578063b5268389146101c257600080fd5b8063558b7dd1116100a5578063558b7dd1146101215780635c975abb14610136578063715018a61461016657600080fd5b80632d878e4c146100cc57806339122461146100e15780633ef11fd714610101575b600080fd5b6100df6100da366004610f65565b610290565b005b3480156100ed57600080fd5b506100df6100fc366004611019565b61034d565b34801561010d57600080fd5b506100df61011c366004611070565b61052d565b34801561012d57600080fd5b506100df610669565b34801561014257600080fd5b50600054600160a01b900460ff165b60405190151581526020015b60405180910390f35b34801561017257600080fd5b506100df61067b565b34801561018757600080fd5b506000546001600160a01b03165b6040516001600160a01b03909116815260200161015d565b3480156101b957600080fd5b506100df61068d565b3480156101ce57600080fd5b506101516101dd3660046110e1565b805160208183018101805160038252928201919093012091525460ff1681565b34801561020957600080fd5b506101956102183660046110e1565b80516020818301810180516002825292820191909301209152546001600160a01b031681565b34801561024a57600080fd5b5061025e610259366004611070565b61069d565b60405160ff909116815260200161015d565b34801561027c57600080fd5b506100df61028b366004611192565b6107c6565b610298610856565b6102a06108b0565b60006001600160a01b031660028a8a6040516102bd9291906111af565b908152604051908190036020019020546001600160a01b0316036103285760405162461bcd60e51b815260206004820152601f60248201527f457461537761703a20414441505445525f444f45535f4e4f545f45584953540060448201526064015b60405180910390fd5b610339898989898989898989610909565b61034260018055565b505050505050505050565b6000816001600160a01b03163b116103a75760405162461bcd60e51b815260206004820152601f60248201527f457461537761703a20414441505445525f4e4f545f415f434f4e545241435400604482015260640161031f565b600383836040516103b99291906111af565b9081526040519081900360200190205460ff16156104195760405162461bcd60e51b815260206004820152601860248201527f457461537761703a20414441505445525f52454d4f5645440000000000000000604482015260640161031f565b60006001600160a01b0316600284846040516104369291906111af565b908152604051908190036020019020546001600160a01b03161461049c5760405162461bcd60e51b815260206004820152601760248201527f457461537761703a20414441505445525f455849535453000000000000000000604482015260640161031f565b80600284846040516104af9291906111af565b90815260405190819003602001812080546001600160a01b0393841673ffffffffffffffffffffffffffffffffffffffff19909116179055908216906104f890859085906111af565b604051908190038120907ff9648cbc19f288e0f271f7e95311238912bf1ea8225e636a13bb1d259126002190600090a3505050565b610535610a2b565b60006001600160a01b0316600283836040516105529291906111af565b908152604051908190036020019020546001600160a01b0316036105b85760405162461bcd60e51b815260206004820152601f60248201527f457461537761703a20414441505445525f444f45535f4e4f545f455849535400604482015260640161031f565b600282826040516105ca9291906111af565b908152604051908190036020018120805473ffffffffffffffffffffffffffffffffffffffff1916905560019060039061060790859085906111af565b908152604051908190036020018120805492151560ff199093169290921790915561063590839083906111af565b604051908190038120907fb00061f7cc154fc23eb34671ab724fc7eb7b806abae871abae8f1eafce97213590600090a25050565b610671610a2b565b610679610a85565b565b610683610a2b565b6106796000610ae5565b610695610a2b565b610679610b42565b6000806001600160a01b0316600284846040516106bb9291906111af565b908152604051908190036020019020546001600160a01b0316036107215760405162461bcd60e51b815260206004820152601f60248201527f457461537761703a20414441505445525f444f45535f4e4f545f455849535400604482015260640161031f565b600283836040516107339291906111af565b9081526040805160209281900383018120547fdc3ef68500000000000000000000000000000000000000000000000000000000825291516001600160a01b039092169263dc3ef685926004808401938290030181865afa15801561079b573d6000803e3d6000fd5b505050506040513d601f19601f820116820180604052508101906107bf91906111bf565b9392505050565b6107ce610a2b565b6001600160a01b03811661084a5760405162461bcd60e51b815260206004820152602660248201527f4f776e61626c653a206e6577206f776e657220697320746865207a65726f206160448201527f6464726573730000000000000000000000000000000000000000000000000000606482015260840161031f565b61085381610ae5565b50565b600054600160a01b900460ff16156106795760405162461bcd60e51b815260206004820152601060248201527f5061757361626c653a2070617573656400000000000000000000000000000000604482015260640161031f565b6002600154036109025760405162461bcd60e51b815260206004820152601f60248201527f5265656e7472616e637947756172643a207265656e7472616e742063616c6c00604482015260640161031f565b6002600155565b600060028a8a60405161091d9291906111af565b908152604051908190036020019020546001600160a01b039081169150881615610956576109566001600160a01b038916338388610b7e565b6040517f9ce9b91d0000000000000000000000000000000000000000000000000000000081526001600160a01b03821690639ce9b91d9034906109ab9033908d908d908d908d908d908d908d906004016111e2565b6000604051808303818588803b1580156109c457600080fd5b505af11580156109d8573d6000803e3d6000fd5b50506040513393506109ef92508d91508c906111af565b604051908190038120907fbeee1e6e7fe307ddcf84b0a16137a4430ad5e2480fc4f4a8e250ab56ccd7630d90600090a350505050505050505050565b6000546001600160a01b031633146106795760405162461bcd60e51b815260206004820181905260248201527f4f776e61626c653a2063616c6c6572206973206e6f7420746865206f776e6572604482015260640161031f565b610a8d610856565b6000805460ff60a01b1916600160a01b1790557f62e78cea01bee320cd4e420270b5ea74000d11b0c9f74754ebdbfc544b05a258610ac83390565b6040516001600160a01b03909116815260200160405180910390a1565b600080546001600160a01b0383811673ffffffffffffffffffffffffffffffffffffffff19831681178455604051919092169283917f8be0079c531659141344cd1fd0a4f28419497f9722a3daafe3b4186f6b6457e09190a35050565b610b4a610c0c565b6000805460ff60a01b191690557f5db9ee0a495bf2e6ff9c91a7834c1ba4fdd244a5e8aa4e537bd38aeae4b073aa33610ac8565b604080516001600160a01b0385811660248301528416604482015260648082018490528251808303909101815260849091019091526020810180517bffffffffffffffffffffffffffffffffffffffffffffffffffffffff167f23b872dd00000000000000000000000000000000000000000000000000000000179052610c06908590610c65565b50505050565b600054600160a01b900460ff166106795760405162461bcd60e51b815260206004820152601460248201527f5061757361626c653a206e6f7420706175736564000000000000000000000000604482015260640161031f565b6000610cba826040518060400160405280602081526020017f5361666545524332303a206c6f772d6c6576656c2063616c6c206661696c6564815250856001600160a01b0316610d529092919063ffffffff16565b9050805160001480610cdb575080806020019051810190610cdb919061124c565b610d4d5760405162461bcd60e51b815260206004820152602a60248201527f5361666545524332303a204552433230206f7065726174696f6e20646964206e60448201527f6f74207375636365656400000000000000000000000000000000000000000000606482015260840161031f565b505050565b6060610d618484600085610d69565b949350505050565b606082471015610de15760405162461bcd60e51b815260206004820152602660248201527f416464726573733a20696e73756666696369656e742062616c616e636520666f60448201527f722063616c6c0000000000000000000000000000000000000000000000000000606482015260840161031f565b600080866001600160a01b03168587604051610dfd919061128d565b60006040518083038185875af1925050503d8060008114610e3a576040519150601f19603f3d011682016040523d82523d6000602084013e610e3f565b606091505b5091509150610e5087838387610e5b565b979650505050505050565b60608315610eca578251600003610ec3576001600160a01b0385163b610ec35760405162461bcd60e51b815260206004820152601d60248201527f416464726573733a2063616c6c20746f206e6f6e2d636f6e7472616374000000604482015260640161031f565b5081610d61565b610d618383815115610edf5781518083602001fd5b8060405162461bcd60e51b815260040161031f91906112a9565b60008083601f840112610f0b57600080fd5b50813567ffffffffffffffff811115610f2357600080fd5b602083019150836020828501011115610f3b57600080fd5b9250929050565b6001600160a01b038116811461085357600080fd5b801515811461085357600080fd5b600080600080600080600080600060e08a8c031215610f8357600080fd5b893567ffffffffffffffff80821115610f9b57600080fd5b610fa78d838e01610ef9565b909b50995060208c01359150610fbc82610f42565b90975060408b01359080821115610fd257600080fd5b50610fdf8c828d01610ef9565b90975095505060608a0135935060808a0135925060a08a0135915060c08a013561100881610f57565b809150509295985092959850929598565b60008060006040848603121561102e57600080fd5b833567ffffffffffffffff81111561104557600080fd5b61105186828701610ef9565b909450925050602084013561106581610f42565b809150509250925092565b6000806020838503121561108357600080fd5b823567ffffffffffffffff81111561109a57600080fd5b6110a685828601610ef9565b90969095509350505050565b7f4e487b7100000000000000000000000000000000000000000000000000000000600052604160045260246000fd5b6000602082840312156110f357600080fd5b813567ffffffffffffffff8082111561110b57600080fd5b818401915084601f83011261111f57600080fd5b813581811115611131576111316110b2565b604051601f8201601f19908116603f01168101908382118183101715611159576111596110b2565b8160405282815287602084870101111561117257600080fd5b826020860160208301376000928101602001929092525095945050505050565b6000602082840312156111a457600080fd5b81356107bf81610f42565b8183823760009101908152919050565b6000602082840312156111d157600080fd5b815160ff811681146107bf57600080fd5b60006001600160a01b03808b168352808a1660208401525060e060408301528660e08301526101008789828501376000838901820152606083019690965250608081019390935260a0830191909152151560c0820152601f909201601f1916909101019392505050565b60006020828403121561125e57600080fd5b81516107bf81610f57565b60005b8381101561128457818101518382015260200161126c565b50506000910152565b6000825161129f818460208701611269565b9190910192915050565b60208152600082518060208401526112c8816040850160208701611269565b601f01601f1916919091016040019291505056fea26469706673582212203f27afee35f6fc3c663fcae85b92843e3c809ed31759327f2d3d52df8c0ab03864736f6c63430008130033",
  "linkReferences": {},
  "deployedLinkReferences": {}
}