{
  "_format": "hh-sol-artifact-1",
  "contractName": "SaucerSwapV2Adapter",
  "sourceName": "contracts/adapters/SaucerSwapV2Adapter.sol",
  "abi": [
    {
      "inputs": [
        {
          "internalType": "address payable",
          "name": "_feeWallet",
          "type": "address"
        },
        {
          "internalType": "contract IUniswapV3Router",
          "name": "_router",
          "type": "address"
        },
        {
          "internalType": "uint8",
          "name": "_feePromille",
          "type": "uint8"
        },
        {
          "internalType": "contract IERC20",
          "name": "_whbarToken",
          "type": "address"
        },
        {
          "internalType": "contract IWHBAR",
          "name": "_whbarContract",
          "type": "address"
        }
      ],
      "stateMutability": "nonpayable",
      "type": "constructor"
    },
    {
      "anonymous": false,
      "inputs": [
        {
          "indexed": true,
          "internalType": "contract IERC20",
          "name": "tokenTo",
          "type": "address"
        },
        {
          "indexed": true,
          "internalType": "bytes",
          "name": "amountToReturn",
          "type": "bytes"
        },
        {
          "indexed": true,
          "internalType": "address",
          "name": "recipient",
          "type": "address"
        },
        {
          "indexed": false,
          "internalType": "uint256",
          "name": "amountToReturn2",
          "type": "uint256"
        },
        {
          "indexed": false,
          "internalType": "uint256",
          "name": "qqq",
          "type": "uint256"
        }
      ],
      "name": "DEBUG",
      "type": "event"
    },
    {
      "anonymous": false,
      "inputs": [
        {
          "indexed": true,
          "internalType": "address",
          "name": "previousOwner",
          "type": "address"
        },
        {
          "indexed": true,
          "internalType": "address",
          "name": "newOwner",
          "type": "address"
        }
      ],
      "name": "OwnershipTransferred",
      "type": "event"
    },
    {
      "stateMutability": "payable",
      "type": "fallback"
    },
    {
      "inputs": [],
      "name": "feePromille",
      "outputs": [
        {
          "internalType": "uint8",
          "name": "",
          "type": "uint8"
        }
      ],
      "stateMutability": "view",
      "type": "function"
    },
    {
      "inputs": [],
      "name": "feeWallet",
      "outputs": [
        {
          "internalType": "address payable",
          "name": "",
          "type": "address"
        }
      ],
      "stateMutability": "view",
      "type": "function"
    },
    {
      "inputs": [],
      "name": "owner",
      "outputs": [
        {
          "internalType": "address",
          "name": "",
          "type": "address"
        }
      ],
      "stateMutability": "view",
      "type": "function"
    },
    {
      "inputs": [],
      "name": "renounceOwnership",
      "outputs": [],
      "stateMutability": "nonpayable",
      "type": "function"
    },
    {
      "inputs": [],
      "name": "router",
      "outputs": [
        {
          "internalType": "contract IUniswapV3Router",
          "name": "",
          "type": "address"
        }
      ],
      "stateMutability": "view",
      "type": "function"
    },
    {
      "inputs": [
        {
          "internalType": "uint8",
          "name": "_feePromille",
          "type": "uint8"
        }
      ],
      "name": "setFeePromille",
      "outputs": [],
      "stateMutability": "nonpayable",
      "type": "function"
    },
    {
      "inputs": [
        {
          "internalType": "address payable",
          "name": "recipient",
          "type": "address"
        },
        {
          "internalType": "bytes",
          "name": "path",
          "type": "bytes"
        },
        {
          "internalType": "uint256",
          "name": "amountFrom",
          "type": "uint256"
        },
        {
          "internalType": "uint256",
          "name": "amountTo",
          "type": "uint256"
        },
        {
          "internalType": "uint256",
          "name": "deadline",
          "type": "uint256"
        },
        {
          "internalType": "bool",
          "name": "feeOnTransfer",
          "type": "bool"
        }
      ],
      "name": "swap",
      "outputs": [],
      "stateMutability": "payable",
      "type": "function"
    },
    {
      "inputs": [
        {
          "internalType": "address",
          "name": "newOwner",
          "type": "address"
        }
      ],
      "name": "transferOwnership",
      "outputs": [],
      "stateMutability": "nonpayable",
      "type": "function"
    },
    {
      "inputs": [],
      "name": "whbarContract",
      "outputs": [
        {
          "internalType": "contract IWHBAR",
          "name": "",
          "type": "address"
        }
      ],
      "stateMutability": "view",
      "type": "function"
    },
    {
      "inputs": [],
      "name": "whbarToken",
      "outputs": [
        {
          "internalType": "contract IERC20",
          "name": "",
          "type": "address"
        }
      ],
      "stateMutability": "view",
      "type": "function"
    },
    {
      "stateMutability": "payable",
      "type": "receive"
    }
  ],
  "bytecode": "0x60c06040523480156200001157600080fd5b506040516200184938038062001849833981016040819052620000349162000104565b6200003f336200009b565b6001600160a01b0394851660a0529284166080526000805460ff909316600160a01b0260ff60a01b1990931692909217909155600180549184166001600160a01b03199283161790556002805492909316911617905562000189565b600080546001600160a01b038381166001600160a01b0319831681178455604051919092169283917f8be0079c531659141344cd1fd0a4f28419497f9722a3daafe3b4186f6b6457e09190a35050565b6001600160a01b03811681146200010157600080fd5b50565b600080600080600060a086880312156200011d57600080fd5b85516200012a81620000eb565b60208701519095506200013d81620000eb565b604087015190945060ff811681146200015557600080fd5b60608701519093506200016881620000eb565b60808701519092506200017b81620000eb565b809150509295509295909350565b60805160a05161162a6200021f600039600081816101b601526103f801526000818161020a015281816104ba01528181610525015281816105a30152818161063501528181610671015281816107080152818161075a01528181610796015281816108a10152818161090c015281816109a9015281816109e501528181610a7c01528181610aeb0152610b27015261162a6000f3fe6080604052600436106100a95760003560e01c8063dc3ef68511610063578063f25f4b561161004b578063f25f4b56146101a4578063f2fde38b146101d8578063f887ea40146101f857005b8063dc3ef68514610151578063e5d128551461018457005b80638da5cb5b116100915780638da5cb5b146100da578063a691744214610111578063be7dd9821461013157005b80632f1525ad146100b2578063715018a6146100c557005b366100b057005b005b6100b06100c0366004611378565b61022c565b3480156100d157600080fd5b506100b0610bca565b3480156100e657600080fd5b506000546001600160a01b03165b6040516001600160a01b0390911681526020015b60405180910390f35b34801561011d57600080fd5b506002546100f4906001600160a01b031681565b34801561013d57600080fd5b506100b061014c36600461142b565b610bde565b34801561015d57600080fd5b5060005461017290600160a01b900460ff1681565b60405160ff9091168152602001610108565b34801561019057600080fd5b506001546100f4906001600160a01b031681565b3480156101b057600080fd5b506100f47f000000000000000000000000000000000000000000000000000000000000000081565b3480156101e457600080fd5b506100b06101f3366004611455565b610c21565b34801561020457600080fd5b506100f47f000000000000000000000000000000000000000000000000000000000000000081565b6000816102775761027287878080601f016020809104026020016040519081016040528093929190818152602001838380828437600092019190915250610cb192505050565b6102b6565b6102b687878080601f016020809104026020016040519081016040528093929190818152602001838380828437600092019190915250610d0d92505050565b9050600082610303576102fe88888080601f016020809104026020016040519081016040528093929190818152602001838380828437600092019190915250610d0d92505050565b610342565b61034288888080601f016020809104026020016040519081016040528093929190818152602001838380828437600092019190915250610cb192505050565b9050806001600160a01b0316826001600160a01b0316036103aa5760405162461bcd60e51b815260206004820152601b60248201527f457461537761703a20544f4b454e5f504149525f494e56414c4944000000000060448201526064015b60405180910390fd5b600080546001546103e89160ff600160a01b90910416906001600160a01b038681169116146103d957886103db565b345b6103e59190611488565b6103ef91906114a5565b905061041c83827f0000000000000000000000000000000000000000000000000000000000000000610d69565b60015460009082906001600160a01b0386811691161461043c578861043e565b345b61044891906114c7565b90508415610837576000806040518060a001604052808d8d8080601f0160208091040260200160405190810160405280939291908181526020018383808284376000920191909152505050908252506001546020909101906001600160a01b038881169116146104b857306104da565b7f00000000000000000000000000000000000000000000000000000000000000005b6001600160a01b039081168252602082018b9052604082018c905260609091018590526001549192509081169087160361061957604051631e51809360e31b81526001600160a01b037f0000000000000000000000000000000000000000000000000000000000000000169063f28c049890859061055c90859060040161157c565b60206040518083038185885af115801561057a573d6000803e3d6000fd5b50505050506040513d601f19601f8201168201806040525081019061059f919061158f565b91507f00000000000000000000000000000000000000000000000000000000000000006001600160a01b03166312210e8a6040518163ffffffff1660e01b8152600401600060405180830381600087803b1580156105fc57600080fd5b505af1158015610610573d6000803e3d6000fd5b50505050610811565b6001546001600160a01b03908116908616036107545761065a867f000000000000000000000000000000000000000000000000000000000000000085610e61565b604051631e51809360e31b81526001600160a01b037f0000000000000000000000000000000000000000000000000000000000000000169063f28c0498906106a690849060040161157c565b6020604051808303816000875af11580156106c5573d6000803e3d6000fd5b505050506040513d601f19601f820116820180604052508101906106e9919061158f565b604051635fb043af60e01b8152600481018b90523060248201529092507f00000000000000000000000000000000000000000000000000000000000000006001600160a01b031690635fb043af90604401600060405180830381600087803b1580156105fc57600080fd5b61077f867f000000000000000000000000000000000000000000000000000000000000000085610e61565b604051631e51809360e31b81526001600160a01b037f0000000000000000000000000000000000000000000000000000000000000000169063f28c0498906107cb90849060040161157c565b6020604051808303816000875af11580156107ea573d6000803e3d6000fd5b505050506040513d601f19601f8201168201806040525081019061080e919061158f565b91505b61081c858a8f610d69565b6108308661082a84866114c7565b8f610d69565b5050610bbd565b6000806040518060a001604052808d8d8080601f0160208091040260200160405190810160405280939291908181526020018383808284376000920191909152505050908252506001546020909101906001600160a01b0388811691161461089f57306108c1565b7f00000000000000000000000000000000000000000000000000000000000000005b6001600160a01b039081168252602082018b90526040820186905260609091018b90526001549192509081169087160361098d5760405163c04b8d5960e01b81526001600160a01b037f0000000000000000000000000000000000000000000000000000000000000000169063c04b8d5990859061094390859060040161157c565b60206040518083038185885af1158015610961573d6000803e3d6000fd5b50505050506040513d601f19601f82011682018060405250810190610986919061158f565b9150610ba2565b6001546001600160a01b0390811690861603610ae5576109ce867f000000000000000000000000000000000000000000000000000000000000000085610e61565b60405163c04b8d5960e01b81526001600160a01b037f0000000000000000000000000000000000000000000000000000000000000000169063c04b8d5990610a1a90849060040161157c565b6020604051808303816000875af1158015610a39573d6000803e3d6000fd5b505050506040513d601f19601f82011682018060405250810190610a5d919061158f565b604051635fb043af60e01b8152600481018290523060248201529092507f00000000000000000000000000000000000000000000000000000000000000006001600160a01b031690635fb043af90604401600060405180830381600087803b158015610ac857600080fd5b505af1158015610adc573d6000803e3d6000fd5b50505050610ba2565b610b10867f000000000000000000000000000000000000000000000000000000000000000085610e61565b60405163c04b8d5960e01b81526001600160a01b037f0000000000000000000000000000000000000000000000000000000000000000169063c04b8d5990610b5c90849060040161157c565b6020604051808303816000875af1158015610b7b573d6000803e3d6000fd5b505050506040513d601f19601f82011682018060405250810190610b9f919061158f565b91505b88821015610baf57600080fd5b610bba85838f610d69565b50505b5050505050505050505050565b610bd2610f8b565b610bdc6000610fe5565b565b610be6610f8b565b6000805460ff909216600160a01b027fffffffffffffffffffffff00ffffffffffffffffffffffffffffffffffffffff909216919091179055565b610c29610f8b565b6001600160a01b038116610ca55760405162461bcd60e51b815260206004820152602660248201527f4f776e61626c653a206e6577206f776e657220697320746865207a65726f206160448201527f646472657373000000000000000000000000000000000000000000000000000060648201526084016103a1565b610cae81610fe5565b50565b6000601482511015610d055760405162461bcd60e51b815260206004820152601760248201527f496e707574206461746120697320746f6f2073686f727400000000000000000060448201526064016103a1565b506014015190565b6000601482511015610d615760405162461bcd60e51b815260206004820152601760248201527f496e707574206461746120697320746f6f2073686f727400000000000000000060448201526064016103a1565b508051015190565b8115610e5c576001546001600160a01b0390811690841603610e4857604080516000808252602082019092526001600160a01b038316908490604051610daf91906115a8565b60006040518083038185875af1925050503d8060008114610dec576040519150601f19603f3d011682016040523d82523d6000602084013e610df1565b606091505b5050905080610e425760405162461bcd60e51b815260206004820152601d60248201527f457461537761703a20484241525f5452414e534645525f4641494c454400000060448201526064016103a1565b50505050565b610e5c6001600160a01b038416828461104d565b505050565b6040517fdd62ed3e0000000000000000000000000000000000000000000000000000000081523060048201526001600160a01b0383811660248301526000919085169063dd62ed3e90604401602060405180830381865afa158015610eca573d6000803e3d6000fd5b505050506040513d601f19601f82011682018060405250810190610eee919061158f565b905081811015610e42576040517f095ea7b30000000000000000000000000000000000000000000000000000000081526001600160a01b0384811660048301526024820184905285169063095ea7b3906044016020604051808303816000875af1158015610f60573d6000803e3d6000fd5b505050506040513d601f19601f82011682018060405250810190610f8491906115c4565b5050505050565b6000546001600160a01b03163314610bdc5760405162461bcd60e51b815260206004820181905260248201527f4f776e61626c653a2063616c6c6572206973206e6f7420746865206f776e657260448201526064016103a1565b600080546001600160a01b038381167fffffffffffffffffffffffff0000000000000000000000000000000000000000831681178455604051919092169283917f8be0079c531659141344cd1fd0a4f28419497f9722a3daafe3b4186f6b6457e09190a35050565b604080516001600160a01b03848116602483015260448083018590528351808403909101815260649092018352602080830180517bffffffffffffffffffffffffffffffffffffffffffffffffffffffff167fa9059cbb0000000000000000000000000000000000000000000000000000000017905283518085019094528084527f5361666545524332303a206c6f772d6c6576656c2063616c6c206661696c656490840152610e5c9286929160009161110b91851690849061119e565b905080516000148061112c57508080602001905181019061112c91906115c4565b610e5c5760405162461bcd60e51b815260206004820152602a60248201527f5361666545524332303a204552433230206f7065726174696f6e20646964206e60448201527f6f7420737563636565640000000000000000000000000000000000000000000060648201526084016103a1565b60606111ad84846000856111b5565b949350505050565b60608247101561122d5760405162461bcd60e51b815260206004820152602660248201527f416464726573733a20696e73756666696369656e742062616c616e636520666f60448201527f722063616c6c000000000000000000000000000000000000000000000000000060648201526084016103a1565b600080866001600160a01b0316858760405161124991906115a8565b60006040518083038185875af1925050503d8060008114611286576040519150601f19603f3d011682016040523d82523d6000602084013e61128b565b606091505b509150915061129c878383876112a7565b979650505050505050565b6060831561131657825160000361130f576001600160a01b0385163b61130f5760405162461bcd60e51b815260206004820152601d60248201527f416464726573733a2063616c6c20746f206e6f6e2d636f6e747261637400000060448201526064016103a1565b50816111ad565b6111ad838381511561132b5781518083602001fd5b8060405162461bcd60e51b81526004016103a191906115e1565b6001600160a01b0381168114610cae57600080fd5b8015158114610cae57600080fd5b80356113738161135a565b919050565b600080600080600080600060c0888a03121561139357600080fd5b873561139e81611345565b9650602088013567ffffffffffffffff808211156113bb57600080fd5b818a0191508a601f8301126113cf57600080fd5b8135818111156113de57600080fd5b8b60208285010111156113f057600080fd5b60208301985080975050505060408801359350606088013592506080880135915061141d60a08901611368565b905092959891949750929550565b60006020828403121561143d57600080fd5b813560ff8116811461144e57600080fd5b9392505050565b60006020828403121561146757600080fd5b813561144e81611345565b634e487b7160e01b600052601160045260246000fd5b808202811582820484141761149f5761149f611472565b92915050565b6000826114c257634e487b7160e01b600052601260045260246000fd5b500490565b8181038181111561149f5761149f611472565b60005b838110156114f55781810151838201526020016114dd565b50506000910152565b600081518084526115168160208601602086016114da565b601f01601f19169290920160200192915050565b6000815160a0845261153f60a08501826114fe565b90506001600160a01b0360208401511660208501526040830151604085015260608301516060850152608083015160808501528091505092915050565b60208152600061144e602083018461152a565b6000602082840312156115a157600080fd5b5051919050565b600082516115ba8184602087016114da565b9190910192915050565b6000602082840312156115d657600080fd5b815161144e8161135a565b60208152600061144e60208301846114fe56fea2646970667358221220be5ec9e8917cd9c45e5cd6a56486bdf8e43ad44f876427cfc6c7d0e79f2b931064736f6c63430008130033",
  "linkReferences": {},
  "deployedLinkReferences": {}
}