{"contracts/Exchange.sol":{"Exchange":{"abi":[{"anonymous":false,"inputs":[{"indexed":true,"internalType":"string","name":"aggregatorId","type":"string"}],"name":"AdapterRemoved","type":"event"},{"anonymous":false,"inputs":[{"indexed":true,"internalType":"string","name":"aggregatorId","type":"string"},{"indexed":true,"internalType":"address","name":"addr","type":"address"}],"name":"AdapterSet","type":"event"},{"anonymous":false,"inputs":[{"indexed":true,"internalType":"address","name":"previousOwner","type":"address"},{"indexed":true,"internalType":"address","name":"newOwner","type":"address"}],"name":"OwnershipTransferred","type":"event"},{"anonymous":false,"inputs":[{"indexed":false,"internalType":"address","name":"account","type":"address"}],"name":"Paused","type":"event"},{"anonymous":false,"inputs":[{"indexed":true,"internalType":"string","name":"aggregatorId","type":"string"},{"indexed":true,"internalType":"address","name":"sender","type":"address"}],"name":"Swap","type":"event"},{"anonymous":false,"inputs":[{"indexed":false,"internalType":"address","name":"account","type":"address"}],"name":"Unpaused","type":"event"},{"inputs":[{"internalType":"string","name":"aggregatorId","type":"string"}],"name":"adapterFee","outputs":[{"internalType":"uint8","name":"fee","type":"uint8"}],"stateMutability":"view","type":"function"},{"inputs":[{"internalType":"string","name":"","type":"string"}],"name":"adapterRemoved","outputs":[{"internalType":"bool","name":"","type":"bool"}],"stateMutability":"view","type":"function"},{"inputs":[{"internalType":"string","name":"","type":"string"}],"name":"adapters","outputs":[{"internalType":"address","name":"","type":"address"}],"stateMutability":"view","type":"function"},{"inputs":[],"name":"owner","outputs":[{"internalType":"address","name":"","type":"address"}],"stateMutability":"view","type":"function"},{"inputs":[],"name":"pauseSwaps","outputs":[],"stateMutability":"nonpayable","type":"function"},{"inputs":[],"name":"paused","outputs":[{"internalType":"bool","name":"","type":"bool"}],"stateMutability":"view","type":"function"},{"inputs":[{"internalType":"string","name":"aggregatorId","type":"string"}],"name":"removeAdapter","outputs":[],"stateMutability":"nonpayable","type":"function"},{"inputs":[],"name":"renounceOwnership","outputs":[],"stateMutability":"nonpayable","type":"function"},{"inputs":[{"internalType":"string","name":"aggregatorId","type":"string"},{"internalType":"address","name":"addr","type":"address"}],"name":"setAdapter","outputs":[],"stateMutability":"nonpayable","type":"function"},{"inputs":[{"internalType":"string","name":"aggregatorId","type":"string"},{"internalType":"bytes","name":"path","type":"bytes"},{"internalType":"uint256","name":"amountFrom","type":"uint256"},{"internalType":"uint256","name":"amountTo","type":"uint256"},{"internalType":"uint256","name":"deadline","type":"uint256"},{"internalType":"bool","name":"isTokenFromHBAR","type":"bool"},{"internalType":"bool","name":"feeOnTransfer","type":"bool"}],"name":"swap","outputs":[],"stateMutability":"payable","type":"function"},{"inputs":[{"internalType":"address","name":"newOwner","type":"address"}],"name":"transferOwnership","outputs":[],"stateMutability":"nonpayable","type":"function"},{"inputs":[],"name":"unpauseSwaps","outputs":[],"stateMutability":"nonpayable","type":"function"}],"evm":{"bytecode":{"linkReferences":{},"object":"608060405234801561001057600080fd5b5061001a33610030565b6000805460ff60a01b1916905560018055610080565b600080546001600160a01b038381166001600160a01b0319831681178455604051919092169283917f8be0079c531659141344cd1fd0a4f28419497f9722a3daafe3b4186f6b6457e09190a35050565b6113a48061008f6000396000f3fe6080604052600436106100c75760003560e01c80639804a38011610074578063bad50a471161004e578063bad50a471461022b578063bd1348991461025d578063f2fde38b1461027057600080fd5b80639804a3801461019a578063b5268389146101af578063b84f5d1e146101ea57600080fd5b80635c975abb116100a55780635c975abb14610123578063715018a6146101535780638da5cb5b1461016857600080fd5b806339122461146100cc5780633ef11fd7146100ee578063558b7dd11461010e575b600080fd5b3480156100d857600080fd5b506100ec6100e7366004610ffa565b610290565b005b3480156100fa57600080fd5b506100ec61010936600461104e565b610475565b34801561011a57600080fd5b506100ec6105b1565b34801561012f57600080fd5b50600054600160a01b900460ff165b60405190151581526020015b60405180910390f35b34801561015f57600080fd5b506100ec6105c3565b34801561017457600080fd5b506000546001600160a01b03165b6040516001600160a01b03909116815260200161014a565b3480156101a657600080fd5b506100ec6105d5565b3480156101bb57600080fd5b5061013e6101ca3660046110bf565b805160208183018101805160038252928201919093012091525460ff1681565b3480156101f657600080fd5b506101826102053660046110bf565b80516020818301810180516002825292820191909301209152546001600160a01b031681565b34801561023757600080fd5b5061024b61024636600461104e565b6105e5565b60405160ff909116815260200161014a565b6100ec61026b36600461117e565b61070e565b34801561027c57600080fd5b506100ec61028b366004611230565b6107c6565b6000816001600160a01b03163b116102ef5760405162461bcd60e51b815260206004820152601f60248201527f457461537761703a20414441505445525f4e4f545f415f434f4e54524143540060448201526064015b60405180910390fd5b6003838360405161030192919061124b565b9081526040519081900360200190205460ff16156103615760405162461bcd60e51b815260206004820152601860248201527f457461537761703a20414441505445525f52454d4f564544000000000000000060448201526064016102e6565b60006001600160a01b03166002848460405161037e92919061124b565b908152604051908190036020019020546001600160a01b0316146103e45760405162461bcd60e51b815260206004820152601760248201527f457461537761703a20414441505445525f45584953545300000000000000000060448201526064016102e6565b80600284846040516103f792919061124b565b90815260405190819003602001812080546001600160a01b0393841673ffffffffffffffffffffffffffffffffffffffff1990911617905590821690610440908590859061124b565b604051908190038120907ff9648cbc19f288e0f271f7e95311238912bf1ea8225e636a13bb1d259126002190600090a3505050565b61047d610856565b60006001600160a01b03166002838360405161049a92919061124b565b908152604051908190036020019020546001600160a01b0316036105005760405162461bcd60e51b815260206004820152601f60248201527f457461537761703a20414441505445525f444f45535f4e4f545f45584953540060448201526064016102e6565b6002828260405161051292919061124b565b908152604051908190036020018120805473ffffffffffffffffffffffffffffffffffffffff1916905560019060039061054f908590859061124b565b908152604051908190036020018120805492151560ff199093169290921790915561057d908390839061124b565b604051908190038120907fb00061f7cc154fc23eb34671ab724fc7eb7b806abae871abae8f1eafce97213590600090a25050565b6105b9610856565b6105c16108b0565b565b6105cb610856565b6105c16000610910565b6105dd610856565b6105c161096d565b6000806001600160a01b03166002848460405161060392919061124b565b908152604051908190036020019020546001600160a01b0316036106695760405162461bcd60e51b815260206004820152601f60248201527f457461537761703a20414441505445525f444f45535f4e4f545f45584953540060448201526064016102e6565b6002838360405161067b92919061124b565b9081526040805160209281900383018120547fdc3ef68500000000000000000000000000000000000000000000000000000000825291516001600160a01b039092169263dc3ef685926004808401938290030181865afa1580156106e3573d6000803e3d6000fd5b505050506040513d601f19601f82011682018060405250810190610707919061125b565b9392505050565b6107166109a9565b61071e610a03565b60006001600160a01b031660028a8a60405161073b92919061124b565b908152604051908190036020019020546001600160a01b0316036107a15760405162461bcd60e51b815260206004820152601f60248201527f457461537761703a20414441505445525f444f45535f4e4f545f45584953540060448201526064016102e6565b6107b2898989898989898989610a5c565b6107bb60018055565b505050505050505050565b6107ce610856565b6001600160a01b03811661084a5760405162461bcd60e51b815260206004820152602660248201527f4f776e61626c653a206e6577206f776e657220697320746865207a65726f206160448201527f646472657373000000000000000000000000000000000000000000000000000060648201526084016102e6565b61085381610910565b50565b6000546001600160a01b031633146105c15760405162461bcd60e51b815260206004820181905260248201527f4f776e61626c653a2063616c6c6572206973206e6f7420746865206f776e657260448201526064016102e6565b6108b86109a9565b6000805460ff60a01b1916600160a01b1790557f62e78cea01bee320cd4e420270b5ea74000d11b0c9f74754ebdbfc544b05a2586108f33390565b6040516001600160a01b03909116815260200160405180910390a1565b600080546001600160a01b0383811673ffffffffffffffffffffffffffffffffffffffff19831681178455604051919092169283917f8be0079c531659141344cd1fd0a4f28419497f9722a3daafe3b4186f6b6457e09190a35050565b610975610bbe565b6000805460ff60a01b191690557f5db9ee0a495bf2e6ff9c91a7834c1ba4fdd244a5e8aa4e537bd38aeae4b073aa336108f3565b600054600160a01b900460ff16156105c15760405162461bcd60e51b815260206004820152601060248201527f5061757361626c653a207061757365640000000000000000000000000000000060448201526064016102e6565b600260015403610a555760405162461bcd60e51b815260206004820152601f60248201527f5265656e7472616e637947756172643a207265656e7472616e742063616c6c0060448201526064016102e6565b6002600155565b600060028a8a604051610a7092919061124b565b908152604051908190036020019020546001600160a01b031690508215610aeb576000610ad289898080601f016020809104026020016040519081016040528093929190818152602001838380828437600092019190915250610c1792505050565b9050610ae96001600160a01b03821633848a610c73565b505b6040517f2f1525ad0000000000000000000000000000000000000000000000000000000081526001600160a01b03821690632f1525ad903490610b3e9033908d908d908d908d908d908c9060040161127e565b6000604051808303818588803b158015610b5757600080fd5b505af1158015610b6b573d6000803e3d6000fd5b5050604051339350610b8292508d91508c9061124b565b604051908190038120907fbeee1e6e7fe307ddcf84b0a16137a4430ad5e2480fc4f4a8e250ab56ccd7630d90600090a350505050505050505050565b600054600160a01b900460ff166105c15760405162461bcd60e51b815260206004820152601460248201527f5061757361626c653a206e6f742070617573656400000000000000000000000060448201526064016102e6565b6000601482511015610c6b5760405162461bcd60e51b815260206004820152601760248201527f496e707574206461746120697320746f6f2073686f727400000000000000000060448201526064016102e6565b506014015190565b604080516001600160a01b0385811660248301528416604482015260648082018490528251808303909101815260849091019091526020810180517bffffffffffffffffffffffffffffffffffffffffffffffffffffffff167f23b872dd00000000000000000000000000000000000000000000000000000000179052610cfb908590610d01565b50505050565b6000610d56826040518060400160405280602081526020017f5361666545524332303a206c6f772d6c6576656c2063616c6c206661696c6564815250856001600160a01b0316610dee9092919063ffffffff16565b9050805160001480610d77575080806020019051810190610d7791906112de565b610de95760405162461bcd60e51b815260206004820152602a60248201527f5361666545524332303a204552433230206f7065726174696f6e20646964206e60448201527f6f7420737563636565640000000000000000000000000000000000000000000060648201526084016102e6565b505050565b6060610dfd8484600085610e05565b949350505050565b606082471015610e7d5760405162461bcd60e51b815260206004820152602660248201527f416464726573733a20696e73756666696369656e742062616c616e636520666f60448201527f722063616c6c000000000000000000000000000000000000000000000000000060648201526084016102e6565b600080866001600160a01b03168587604051610e99919061131f565b60006040518083038185875af1925050503d8060008114610ed6576040519150601f19603f3d011682016040523d82523d6000602084013e610edb565b606091505b5091509150610eec87838387610ef7565b979650505050505050565b60608315610f66578251600003610f5f576001600160a01b0385163b610f5f5760405162461bcd60e51b815260206004820152601d60248201527f416464726573733a2063616c6c20746f206e6f6e2d636f6e747261637400000060448201526064016102e6565b5081610dfd565b610dfd8383815115610f7b5781518083602001fd5b8060405162461bcd60e51b81526004016102e6919061133b565b60008083601f840112610fa757600080fd5b50813567ffffffffffffffff811115610fbf57600080fd5b602083019150836020828501011115610fd757600080fd5b9250929050565b80356001600160a01b0381168114610ff557600080fd5b919050565b60008060006040848603121561100f57600080fd5b833567ffffffffffffffff81111561102657600080fd5b61103286828701610f95565b9094509250611045905060208501610fde565b90509250925092565b6000806020838503121561106157600080fd5b823567ffffffffffffffff81111561107857600080fd5b61108485828601610f95565b90969095509350505050565b7f4e487b7100000000000000000000000000000000000000000000000000000000600052604160045260246000fd5b6000602082840312156110d157600080fd5b813567ffffffffffffffff808211156110e957600080fd5b818401915084601f8301126110fd57600080fd5b81358181111561110f5761110f611090565b604051601f8201601f19908116603f0116810190838211818310171561113757611137611090565b8160405282815287602084870101111561115057600080fd5b826020860160208301376000928101602001929092525095945050505050565b801515811461085357600080fd5b600080600080600080600080600060e08a8c03121561119c57600080fd5b893567ffffffffffffffff808211156111b457600080fd5b6111c08d838e01610f95565b909b50995060208c01359150808211156111d957600080fd5b506111e68c828d01610f95565b90985096505060408a0135945060608a0135935060808a0135925060a08a013561120f81611170565b915060c08a013561121f81611170565b809150509295985092959850929598565b60006020828403121561124257600080fd5b61070782610fde565b8183823760009101908152919050565b60006020828403121561126d57600080fd5b815160ff8116811461070757600080fd5b6001600160a01b038816815260c060208201528560c0820152858760e0830137600060e08783010152600060e0601f19601f890116830101905085604083015284606083015283608083015282151560a083015298975050505050505050565b6000602082840312156112f057600080fd5b815161070781611170565b60005b838110156113165781810151838201526020016112fe565b50506000910152565b600082516113318184602087016112fb565b9190910192915050565b602081526000825180602084015261135a8160408501602087016112fb565b601f01601f1916919091016040019291505056fea264697066735822122022e6a483911a33ee3533338b43d45a4cdf41462c8eb3ad53c063b058114321f464736f6c63430008130033","opcodes":"PUSH1 0x80 PUSH1 0x40 MSTORE CALLVALUE DUP1 ISZERO PUSH2 0x10 JUMPI PUSH1 0x0 DUP1 REVERT JUMPDEST POP PUSH2 0x1A CALLER PUSH2 0x30 JUMP JUMPDEST PUSH1 0x0 DUP1 SLOAD PUSH1 0xFF PUSH1 0xA0 SHL NOT AND SWAP1 SSTORE PUSH1 0x1 DUP1 SSTORE PUSH2 0x80 JUMP JUMPDEST PUSH1 0x0 DUP1 SLOAD PUSH1 0x1 PUSH1 0x1 PUSH1 0xA0 SHL SUB DUP4 DUP2 AND PUSH1 0x1 PUSH1 0x1 PUSH1 0xA0 SHL SUB NOT DUP4 AND DUP2 OR DUP5 SSTORE PUSH1 0x40 MLOAD SWAP2 SWAP1 SWAP3 AND SWAP3 DUP4 SWAP2 PUSH32 0x8BE0079C531659141344CD1FD0A4F28419497F9722A3DAAFE3B4186F6B6457E0 SWAP2 SWAP1 LOG3 POP POP JUMP JUMPDEST PUSH2 0x13A4 DUP1 PUSH2 0x8F PUSH1 0x0 CODECOPY PUSH1 0x0 RETURN INVALID PUSH1 0x80 PUSH1 0x40 MSTORE PUSH1 0x4 CALLDATASIZE LT PUSH2 0xC7 JUMPI PUSH1 0x0 CALLDATALOAD PUSH1 0xE0 SHR DUP1 PUSH4 0x9804A380 GT PUSH2 0x74 JUMPI DUP1 PUSH4 0xBAD50A47 GT PUSH2 0x4E JUMPI DUP1 PUSH4 0xBAD50A47 EQ PUSH2 0x22B JUMPI DUP1 PUSH4 0xBD134899 EQ PUSH2 0x25D JUMPI DUP1 PUSH4 0xF2FDE38B EQ PUSH2 0x270 JUMPI PUSH1 0x0 DUP1 REVERT JUMPDEST DUP1 PUSH4 0x9804A380 EQ PUSH2 0x19A JUMPI DUP1 PUSH4 0xB5268389 EQ PUSH2 0x1AF JUMPI DUP1 PUSH4 0xB84F5D1E EQ PUSH2 0x1EA JUMPI PUSH1 0x0 DUP1 REVERT JUMPDEST DUP1 PUSH4 0x5C975ABB GT PUSH2 0xA5 JUMPI DUP1 PUSH4 0x5C975ABB EQ PUSH2 0x123 JUMPI DUP1 PUSH4 0x715018A6 EQ PUSH2 0x153 JUMPI DUP1 PUSH4 0x8DA5CB5B EQ PUSH2 0x168 JUMPI PUSH1 0x0 DUP1 REVERT JUMPDEST DUP1 PUSH4 0x39122461 EQ PUSH2 0xCC JUMPI DUP1 PUSH4 0x3EF11FD7 EQ PUSH2 0xEE JUMPI DUP1 PUSH4 0x558B7DD1 EQ PUSH2 0x10E JUMPI JUMPDEST PUSH1 0x0 DUP1 REVERT JUMPDEST CALLVALUE DUP1 ISZERO PUSH2 0xD8 JUMPI PUSH1 0x0 DUP1 REVERT JUMPDEST POP PUSH2 0xEC PUSH2 0xE7 CALLDATASIZE PUSH1 0x4 PUSH2 0xFFA JUMP JUMPDEST PUSH2 0x290 JUMP JUMPDEST STOP JUMPDEST CALLVALUE DUP1 ISZERO PUSH2 0xFA JUMPI PUSH1 0x0 DUP1 REVERT JUMPDEST POP PUSH2 0xEC PUSH2 0x109 CALLDATASIZE PUSH1 0x4 PUSH2 0x104E JUMP JUMPDEST PUSH2 0x475 JUMP JUMPDEST CALLVALUE DUP1 ISZERO PUSH2 0x11A JUMPI PUSH1 0x0 DUP1 REVERT JUMPDEST POP PUSH2 0xEC PUSH2 0x5B1 JUMP JUMPDEST CALLVALUE DUP1 ISZERO PUSH2 0x12F JUMPI PUSH1 0x0 DUP1 REVERT JUMPDEST POP PUSH1 0x0 SLOAD PUSH1 0x1 PUSH1 0xA0 SHL SWAP1 DIV PUSH1 0xFF AND JUMPDEST PUSH1 0x40 MLOAD SWAP1 ISZERO ISZERO DUP2 MSTORE PUSH1 0x20 ADD JUMPDEST PUSH1 0x40 MLOAD DUP1 SWAP2 SUB SWAP1 RETURN JUMPDEST CALLVALUE DUP1 ISZERO PUSH2 0x15F JUMPI PUSH1 0x0 DUP1 REVERT JUMPDEST POP PUSH2 0xEC PUSH2 0x5C3 JUMP JUMPDEST CALLVALUE DUP1 ISZERO PUSH2 0x174 JUMPI PUSH1 0x0 DUP1 REVERT JUMPDEST POP PUSH1 0x0 SLOAD PUSH1 0x1 PUSH1 0x1 PUSH1 0xA0 SHL SUB AND JUMPDEST PUSH1 0x40 MLOAD PUSH1 0x1 PUSH1 0x1 PUSH1 0xA0 SHL SUB SWAP1 SWAP2 AND DUP2 MSTORE PUSH1 0x20 ADD PUSH2 0x14A JUMP JUMPDEST CALLVALUE DUP1 ISZERO PUSH2 0x1A6 JUMPI PUSH1 0x0 DUP1 REVERT JUMPDEST POP PUSH2 0xEC PUSH2 0x5D5 JUMP JUMPDEST CALLVALUE DUP1 ISZERO PUSH2 0x1BB JUMPI PUSH1 0x0 DUP1 REVERT JUMPDEST POP PUSH2 0x13E PUSH2 0x1CA CALLDATASIZE PUSH1 0x4 PUSH2 0x10BF JUMP JUMPDEST DUP1 MLOAD PUSH1 0x20 DUP2 DUP4 ADD DUP2 ADD DUP1 MLOAD PUSH1 0x3 DUP3 MSTORE SWAP3 DUP3 ADD SWAP2 SWAP1 SWAP4 ADD KECCAK256 SWAP2 MSTORE SLOAD PUSH1 0xFF AND DUP2 JUMP JUMPDEST CALLVALUE DUP1 ISZERO PUSH2 0x1F6 JUMPI PUSH1 0x0 DUP1 REVERT JUMPDEST POP PUSH2 0x182 PUSH2 0x205 CALLDATASIZE PUSH1 0x4 PUSH2 0x10BF JUMP JUMPDEST DUP1 MLOAD PUSH1 0x20 DUP2 DUP4 ADD DUP2 ADD DUP1 MLOAD PUSH1 0x2 DUP3 MSTORE SWAP3 DUP3 ADD SWAP2 SWAP1 SWAP4 ADD KECCAK256 SWAP2 MSTORE SLOAD PUSH1 0x1 PUSH1 0x1 PUSH1 0xA0 SHL SUB AND DUP2 JUMP JUMPDEST CALLVALUE DUP1 ISZERO PUSH2 0x237 JUMPI PUSH1 0x0 DUP1 REVERT JUMPDEST POP PUSH2 0x24B PUSH2 0x246 CALLDATASIZE PUSH1 0x4 PUSH2 0x104E JUMP JUMPDEST PUSH2 0x5E5 JUMP JUMPDEST PUSH1 0x40 MLOAD PUSH1 0xFF SWAP1 SWAP2 AND DUP2 MSTORE PUSH1 0x20 ADD PUSH2 0x14A JUMP JUMPDEST PUSH2 0xEC PUSH2 0x26B CALLDATASIZE PUSH1 0x4 PUSH2 0x117E JUMP JUMPDEST PUSH2 0x70E JUMP JUMPDEST CALLVALUE DUP1 ISZERO PUSH2 0x27C JUMPI PUSH1 0x0 DUP1 REVERT JUMPDEST POP PUSH2 0xEC PUSH2 0x28B CALLDATASIZE PUSH1 0x4 PUSH2 0x1230 JUMP JUMPDEST PUSH2 0x7C6 JUMP JUMPDEST PUSH1 0x0 DUP2 PUSH1 0x1 PUSH1 0x1 PUSH1 0xA0 SHL SUB AND EXTCODESIZE GT PUSH2 0x2EF JUMPI PUSH1 0x40 MLOAD PUSH3 0x461BCD PUSH1 0xE5 SHL DUP2 MSTORE PUSH1 0x20 PUSH1 0x4 DUP3 ADD MSTORE PUSH1 0x1F PUSH1 0x24 DUP3 ADD MSTORE PUSH32 0x457461537761703A20414441505445525F4E4F545F415F434F4E545241435400 PUSH1 0x44 DUP3 ADD MSTORE PUSH1 0x64 ADD JUMPDEST PUSH1 0x40 MLOAD DUP1 SWAP2 SUB SWAP1 REVERT JUMPDEST PUSH1 0x3 DUP4 DUP4 PUSH1 0x40 MLOAD PUSH2 0x301 SWAP3 SWAP2 SWAP1 PUSH2 0x124B JUMP JUMPDEST SWAP1 DUP2 MSTORE PUSH1 0x40 MLOAD SWAP1 DUP2 SWAP1 SUB PUSH1 0x20 ADD SWAP1 KECCAK256 SLOAD PUSH1 0xFF AND ISZERO PUSH2 0x361 JUMPI PUSH1 0x40 MLOAD PUSH3 0x461BCD PUSH1 0xE5 SHL DUP2 MSTORE PUSH1 0x20 PUSH1 0x4 DUP3 ADD MSTORE PUSH1 0x18 PUSH1 0x24 DUP3 ADD MSTORE PUSH32 0x457461537761703A20414441505445525F52454D4F5645440000000000000000 PUSH1 0x44 DUP3 ADD MSTORE PUSH1 0x64 ADD PUSH2 0x2E6 JUMP JUMPDEST PUSH1 0x0 PUSH1 0x1 PUSH1 0x1 PUSH1 0xA0 SHL SUB AND PUSH1 0x2 DUP5 DUP5 PUSH1 0x40 MLOAD PUSH2 0x37E SWAP3 SWAP2 SWAP1 PUSH2 0x124B JUMP JUMPDEST SWAP1 DUP2 MSTORE PUSH1 0x40 MLOAD SWAP1 DUP2 SWAP1 SUB PUSH1 0x20 ADD SWAP1 KECCAK256 SLOAD PUSH1 0x1 PUSH1 0x1 PUSH1 0xA0 SHL SUB AND EQ PUSH2 0x3E4 JUMPI PUSH1 0x40 MLOAD PUSH3 0x461BCD PUSH1 0xE5 SHL DUP2 MSTORE PUSH1 0x20 PUSH1 0x4 DUP3 ADD MSTORE PUSH1 0x17 PUSH1 0x24 DUP3 ADD MSTORE PUSH32 0x457461537761703A20414441505445525F455849535453000000000000000000 PUSH1 0x44 DUP3 ADD MSTORE PUSH1 0x64 ADD PUSH2 0x2E6 JUMP JUMPDEST DUP1 PUSH1 0x2 DUP5 DUP5 PUSH1 0x40 MLOAD PUSH2 0x3F7 SWAP3 SWAP2 SWAP1 PUSH2 0x124B JUMP JUMPDEST SWAP1 DUP2 MSTORE PUSH1 0x40 MLOAD SWAP1 DUP2 SWAP1 SUB PUSH1 0x20 ADD DUP2 KECCAK256 DUP1 SLOAD PUSH1 0x1 PUSH1 0x1 PUSH1 0xA0 SHL SUB SWAP4 DUP5 AND PUSH20 0xFFFFFFFFFFFFFFFFFFFFFFFFFFFFFFFFFFFFFFFF NOT SWAP1 SWAP2 AND OR SWAP1 SSTORE SWAP1 DUP3 AND SWAP1 PUSH2 0x440 SWAP1 DUP6 SWAP1 DUP6 SWAP1 PUSH2 0x124B JUMP JUMPDEST PUSH1 0x40 MLOAD SWAP1 DUP2 SWAP1 SUB DUP2 KECCAK256 SWAP1 PUSH32 0xF9648CBC19F288E0F271F7E95311238912BF1EA8225E636A13BB1D2591260021 SWAP1 PUSH1 0x0 SWAP1 LOG3 POP POP POP JUMP JUMPDEST PUSH2 0x47D PUSH2 0x856 JUMP JUMPDEST PUSH1 0x0 PUSH1 0x1 PUSH1 0x1 PUSH1 0xA0 SHL SUB AND PUSH1 0x2 DUP4 DUP4 PUSH1 0x40 MLOAD PUSH2 0x49A SWAP3 SWAP2 SWAP1 PUSH2 0x124B JUMP JUMPDEST SWAP1 DUP2 MSTORE PUSH1 0x40 MLOAD SWAP1 DUP2 SWAP1 SUB PUSH1 0x20 ADD SWAP1 KECCAK256 SLOAD PUSH1 0x1 PUSH1 0x1 PUSH1 0xA0 SHL SUB AND SUB PUSH2 0x500 JUMPI PUSH1 0x40 MLOAD PUSH3 0x461BCD PUSH1 0xE5 SHL DUP2 MSTORE PUSH1 0x20 PUSH1 0x4 DUP3 ADD MSTORE PUSH1 0x1F PUSH1 0x24 DUP3 ADD MSTORE PUSH32 0x457461537761703A20414441505445525F444F45535F4E4F545F455849535400 PUSH1 0x44 DUP3 ADD MSTORE PUSH1 0x64 ADD PUSH2 0x2E6 JUMP JUMPDEST PUSH1 0x2 DUP3 DUP3 PUSH1 0x40 MLOAD PUSH2 0x512 SWAP3 SWAP2 SWAP1 PUSH2 0x124B JUMP JUMPDEST SWAP1 DUP2 MSTORE PUSH1 0x40 MLOAD SWAP1 DUP2 SWAP1 SUB PUSH1 0x20 ADD DUP2 KECCAK256 DUP1 SLOAD PUSH20 0xFFFFFFFFFFFFFFFFFFFFFFFFFFFFFFFFFFFFFFFF NOT AND SWAP1 SSTORE PUSH1 0x1 SWAP1 PUSH1 0x3 SWAP1 PUSH2 0x54F SWAP1 DUP6 SWAP1 DUP6 SWAP1 PUSH2 0x124B JUMP JUMPDEST SWAP1 DUP2 MSTORE PUSH1 0x40 MLOAD SWAP1 DUP2 SWAP1 SUB PUSH1 0x20 ADD DUP2 KECCAK256 DUP1 SLOAD SWAP3 ISZERO ISZERO PUSH1 0xFF NOT SWAP1 SWAP4 AND SWAP3 SWAP1 SWAP3 OR SWAP1 SWAP2 SSTORE PUSH2 0x57D SWAP1 DUP4 SWAP1 DUP4 SWAP1 PUSH2 0x124B JUMP JUMPDEST PUSH1 0x40 MLOAD SWAP1 DUP2 SWAP1 SUB DUP2 KECCAK256 SWAP1 PUSH32 0xB00061F7CC154FC23EB34671AB724FC7EB7B806ABAE871ABAE8F1EAFCE972135 SWAP1 PUSH1 0x0 SWAP1 LOG2 POP POP JUMP JUMPDEST PUSH2 0x5B9 PUSH2 0x856 JUMP JUMPDEST PUSH2 0x5C1 PUSH2 0x8B0 JUMP JUMPDEST JUMP JUMPDEST PUSH2 0x5CB PUSH2 0x856 JUMP JUMPDEST PUSH2 0x5C1 PUSH1 0x0 PUSH2 0x910 JUMP JUMPDEST PUSH2 0x5DD PUSH2 0x856 JUMP JUMPDEST PUSH2 0x5C1 PUSH2 0x96D JUMP JUMPDEST PUSH1 0x0 DUP1 PUSH1 0x1 PUSH1 0x1 PUSH1 0xA0 SHL SUB AND PUSH1 0x2 DUP5 DUP5 PUSH1 0x40 MLOAD PUSH2 0x603 SWAP3 SWAP2 SWAP1 PUSH2 0x124B JUMP JUMPDEST SWAP1 DUP2 MSTORE PUSH1 0x40 MLOAD SWAP1 DUP2 SWAP1 SUB PUSH1 0x20 ADD SWAP1 KECCAK256 SLOAD PUSH1 0x1 PUSH1 0x1 PUSH1 0xA0 SHL SUB AND SUB PUSH2 0x669 JUMPI PUSH1 0x40 MLOAD PUSH3 0x461BCD PUSH1 0xE5 SHL DUP2 MSTORE PUSH1 0x20 PUSH1 0x4 DUP3 ADD MSTORE PUSH1 0x1F PUSH1 0x24 DUP3 ADD MSTORE PUSH32 0x457461537761703A20414441505445525F444F45535F4E4F545F455849535400 PUSH1 0x44 DUP3 ADD MSTORE PUSH1 0x64 ADD PUSH2 0x2E6 JUMP JUMPDEST PUSH1 0x2 DUP4 DUP4 PUSH1 0x40 MLOAD PUSH2 0x67B SWAP3 SWAP2 SWAP1 PUSH2 0x124B JUMP JUMPDEST SWAP1 DUP2 MSTORE PUSH1 0x40 DUP1 MLOAD PUSH1 0x20 SWAP3 DUP2 SWAP1 SUB DUP4 ADD DUP2 KECCAK256 SLOAD PUSH32 0xDC3EF68500000000000000000000000000000000000000000000000000000000 DUP3 MSTORE SWAP2 MLOAD PUSH1 0x1 PUSH1 0x1 PUSH1 0xA0 SHL SUB SWAP1 SWAP3 AND SWAP3 PUSH4 0xDC3EF685 SWAP3 PUSH1 0x4 DUP1 DUP5 ADD SWAP4 DUP3 SWAP1 SUB ADD DUP2 DUP7 GAS STATICCALL ISZERO DUP1 ISZERO PUSH2 0x6E3 JUMPI RETURNDATASIZE PUSH1 0x0 DUP1 RETURNDATACOPY RETURNDATASIZE PUSH1 0x0 REVERT JUMPDEST POP POP POP POP PUSH1 0x40 MLOAD RETURNDATASIZE PUSH1 0x1F NOT PUSH1 0x1F DUP3 ADD AND DUP3 ADD DUP1 PUSH1 0x40 MSTORE POP DUP2 ADD SWAP1 PUSH2 0x707 SWAP2 SWAP1 PUSH2 0x125B JUMP JUMPDEST SWAP4 SWAP3 POP POP POP JUMP JUMPDEST PUSH2 0x716 PUSH2 0x9A9 JUMP JUMPDEST PUSH2 0x71E PUSH2 0xA03 JUMP JUMPDEST PUSH1 0x0 PUSH1 0x1 PUSH1 0x1 PUSH1 0xA0 SHL SUB AND PUSH1 0x2 DUP11 DUP11 PUSH1 0x40 MLOAD PUSH2 0x73B SWAP3 SWAP2 SWAP1 PUSH2 0x124B JUMP JUMPDEST SWAP1 DUP2 MSTORE PUSH1 0x40 MLOAD SWAP1 DUP2 SWAP1 SUB PUSH1 0x20 ADD SWAP1 KECCAK256 SLOAD PUSH1 0x1 PUSH1 0x1 PUSH1 0xA0 SHL SUB AND SUB PUSH2 0x7A1 JUMPI PUSH1 0x40 MLOAD PUSH3 0x461BCD PUSH1 0xE5 SHL DUP2 MSTORE PUSH1 0x20 PUSH1 0x4 DUP3 ADD MSTORE PUSH1 0x1F PUSH1 0x24 DUP3 ADD MSTORE PUSH32 0x457461537761703A20414441505445525F444F45535F4E4F545F455849535400 PUSH1 0x44 DUP3 ADD MSTORE PUSH1 0x64 ADD PUSH2 0x2E6 JUMP JUMPDEST PUSH2 0x7B2 DUP10 DUP10 DUP10 DUP10 DUP10 DUP10 DUP10 DUP10 DUP10 PUSH2 0xA5C JUMP JUMPDEST PUSH2 0x7BB PUSH1 0x1 DUP1 SSTORE JUMP JUMPDEST POP POP POP POP POP POP POP POP POP JUMP JUMPDEST PUSH2 0x7CE PUSH2 0x856 JUMP JUMPDEST PUSH1 0x1 PUSH1 0x1 PUSH1 0xA0 SHL SUB DUP2 AND PUSH2 0x84A JUMPI PUSH1 0x40 MLOAD PUSH3 0x461BCD PUSH1 0xE5 SHL DUP2 MSTORE PUSH1 0x20 PUSH1 0x4 DUP3 ADD MSTORE PUSH1 0x26 PUSH1 0x24 DUP3 ADD MSTORE PUSH32 0x4F776E61626C653A206E6577206F776E657220697320746865207A65726F2061 PUSH1 0x44 DUP3 ADD MSTORE PUSH32 0x6464726573730000000000000000000000000000000000000000000000000000 PUSH1 0x64 DUP3 ADD MSTORE PUSH1 0x84 ADD PUSH2 0x2E6 JUMP JUMPDEST PUSH2 0x853 DUP2 PUSH2 0x910 JUMP JUMPDEST POP JUMP JUMPDEST PUSH1 0x0 SLOAD PUSH1 0x1 PUSH1 0x1 PUSH1 0xA0 SHL SUB AND CALLER EQ PUSH2 0x5C1 JUMPI PUSH1 0x40 MLOAD PUSH3 0x461BCD PUSH1 0xE5 SHL DUP2 MSTORE PUSH1 0x20 PUSH1 0x4 DUP3 ADD DUP2 SWAP1 MSTORE PUSH1 0x24 DUP3 ADD MSTORE PUSH32 0x4F776E61626C653A2063616C6C6572206973206E6F7420746865206F776E6572 PUSH1 0x44 DUP3 ADD MSTORE PUSH1 0x64 ADD PUSH2 0x2E6 JUMP JUMPDEST PUSH2 0x8B8 PUSH2 0x9A9 JUMP JUMPDEST PUSH1 0x0 DUP1 SLOAD PUSH1 0xFF PUSH1 0xA0 SHL NOT AND PUSH1 0x1 PUSH1 0xA0 SHL OR SWAP1 SSTORE PUSH32 0x62E78CEA01BEE320CD4E420270B5EA74000D11B0C9F74754EBDBFC544B05A258 PUSH2 0x8F3 CALLER SWAP1 JUMP JUMPDEST PUSH1 0x40 MLOAD PUSH1 0x1 PUSH1 0x1 PUSH1 0xA0 SHL SUB SWAP1 SWAP2 AND DUP2 MSTORE PUSH1 0x20 ADD PUSH1 0x40 MLOAD DUP1 SWAP2 SUB SWAP1 LOG1 JUMP JUMPDEST PUSH1 0x0 DUP1 SLOAD PUSH1 0x1 PUSH1 0x1 PUSH1 0xA0 SHL SUB DUP4 DUP2 AND PUSH20 0xFFFFFFFFFFFFFFFFFFFFFFFFFFFFFFFFFFFFFFFF NOT DUP4 AND DUP2 OR DUP5 SSTORE PUSH1 0x40 MLOAD SWAP2 SWAP1 SWAP3 AND SWAP3 DUP4 SWAP2 PUSH32 0x8BE0079C531659141344CD1FD0A4F28419497F9722A3DAAFE3B4186F6B6457E0 SWAP2 SWAP1 LOG3 POP POP JUMP JUMPDEST PUSH2 0x975 PUSH2 0xBBE JUMP JUMPDEST PUSH1 0x0 DUP1 SLOAD PUSH1 0xFF PUSH1 0xA0 SHL NOT AND SWAP1 SSTORE PUSH32 0x5DB9EE0A495BF2E6FF9C91A7834C1BA4FDD244A5E8AA4E537BD38AEAE4B073AA CALLER PUSH2 0x8F3 JUMP JUMPDEST PUSH1 0x0 SLOAD PUSH1 0x1 PUSH1 0xA0 SHL SWAP1 DIV PUSH1 0xFF AND ISZERO PUSH2 0x5C1 JUMPI PUSH1 0x40 MLOAD PUSH3 0x461BCD PUSH1 0xE5 SHL DUP2 MSTORE PUSH1 0x20 PUSH1 0x4 DUP3 ADD MSTORE PUSH1 0x10 PUSH1 0x24 DUP3 ADD MSTORE PUSH32 0x5061757361626C653A2070617573656400000000000000000000000000000000 PUSH1 0x44 DUP3 ADD MSTORE PUSH1 0x64 ADD PUSH2 0x2E6 JUMP JUMPDEST PUSH1 0x2 PUSH1 0x1 SLOAD SUB PUSH2 0xA55 JUMPI PUSH1 0x40 MLOAD PUSH3 0x461BCD PUSH1 0xE5 SHL DUP2 MSTORE PUSH1 0x20 PUSH1 0x4 DUP3 ADD MSTORE PUSH1 0x1F PUSH1 0x24 DUP3 ADD MSTORE PUSH32 0x5265656E7472616E637947756172643A207265656E7472616E742063616C6C00 PUSH1 0x44 DUP3 ADD MSTORE PUSH1 0x64 ADD PUSH2 0x2E6 JUMP JUMPDEST PUSH1 0x2 PUSH1 0x1 SSTORE JUMP JUMPDEST PUSH1 0x0 PUSH1 0x2 DUP11 DUP11 PUSH1 0x40 MLOAD PUSH2 0xA70 SWAP3 SWAP2 SWAP1 PUSH2 0x124B JUMP JUMPDEST SWAP1 DUP2 MSTORE PUSH1 0x40 MLOAD SWAP1 DUP2 SWAP1 SUB PUSH1 0x20 ADD SWAP1 KECCAK256 SLOAD PUSH1 0x1 PUSH1 0x1 PUSH1 0xA0 SHL SUB AND SWAP1 POP DUP3 ISZERO PUSH2 0xAEB JUMPI PUSH1 0x0 PUSH2 0xAD2 DUP10 DUP10 DUP1 DUP1 PUSH1 0x1F ADD PUSH1 0x20 DUP1 SWAP2 DIV MUL PUSH1 0x20 ADD PUSH1 0x40 MLOAD SWAP1 DUP2 ADD PUSH1 0x40 MSTORE DUP1 SWAP4 SWAP3 SWAP2 SWAP1 DUP2 DUP2 MSTORE PUSH1 0x20 ADD DUP4 DUP4 DUP1 DUP3 DUP5 CALLDATACOPY PUSH1 0x0 SWAP3 ADD SWAP2 SWAP1 SWAP2 MSTORE POP PUSH2 0xC17 SWAP3 POP POP POP JUMP JUMPDEST SWAP1 POP PUSH2 0xAE9 PUSH1 0x1 PUSH1 0x1 PUSH1 0xA0 SHL SUB DUP3 AND CALLER DUP5 DUP11 PUSH2 0xC73 JUMP JUMPDEST POP JUMPDEST PUSH1 0x40 MLOAD PUSH32 0x2F1525AD00000000000000000000000000000000000000000000000000000000 DUP2 MSTORE PUSH1 0x1 PUSH1 0x1 PUSH1 0xA0 SHL SUB DUP3 AND SWAP1 PUSH4 0x2F1525AD SWAP1 CALLVALUE SWAP1 PUSH2 0xB3E SWAP1 CALLER SWAP1 DUP14 SWAP1 DUP14 SWAP1 DUP14 SWAP1 DUP14 SWAP1 DUP14 SWAP1 DUP13 SWAP1 PUSH1 0x4 ADD PUSH2 0x127E JUMP JUMPDEST PUSH1 0x0 PUSH1 0x40 MLOAD DUP1 DUP4 SUB DUP2 DUP6 DUP9 DUP1 EXTCODESIZE ISZERO DUP1 ISZERO PUSH2 0xB57 JUMPI PUSH1 0x0 DUP1 REVERT JUMPDEST POP GAS CALL ISZERO DUP1 ISZERO PUSH2 0xB6B JUMPI RETURNDATASIZE PUSH1 0x0 DUP1 RETURNDATACOPY RETURNDATASIZE PUSH1 0x0 REVERT JUMPDEST POP POP PUSH1 0x40 MLOAD CALLER SWAP4 POP PUSH2 0xB82 SWAP3 POP DUP14 SWAP2 POP DUP13 SWAP1 PUSH2 0x124B JUMP JUMPDEST PUSH1 0x40 MLOAD SWAP1 DUP2 SWAP1 SUB DUP2 KECCAK256 SWAP1 PUSH32 0xBEEE1E6E7FE307DDCF84B0A16137A4430AD5E2480FC4F4A8E250AB56CCD7630D SWAP1 PUSH1 0x0 SWAP1 LOG3 POP POP POP POP POP POP POP POP POP POP JUMP JUMPDEST PUSH1 0x0 SLOAD PUSH1 0x1 PUSH1 0xA0 SHL SWAP1 DIV PUSH1 0xFF AND PUSH2 0x5C1 JUMPI PUSH1 0x40 MLOAD PUSH3 0x461BCD PUSH1 0xE5 SHL DUP2 MSTORE PUSH1 0x20 PUSH1 0x4 DUP3 ADD MSTORE PUSH1 0x14 PUSH1 0x24 DUP3 ADD MSTORE PUSH32 0x5061757361626C653A206E6F7420706175736564000000000000000000000000 PUSH1 0x44 DUP3 ADD MSTORE PUSH1 0x64 ADD PUSH2 0x2E6 JUMP JUMPDEST PUSH1 0x0 PUSH1 0x14 DUP3 MLOAD LT ISZERO PUSH2 0xC6B JUMPI PUSH1 0x40 MLOAD PUSH3 0x461BCD PUSH1 0xE5 SHL DUP2 MSTORE PUSH1 0x20 PUSH1 0x4 DUP3 ADD MSTORE PUSH1 0x17 PUSH1 0x24 DUP3 ADD MSTORE PUSH32 0x496E707574206461746120697320746F6F2073686F7274000000000000000000 PUSH1 0x44 DUP3 ADD MSTORE PUSH1 0x64 ADD PUSH2 0x2E6 JUMP JUMPDEST POP PUSH1 0x14 ADD MLOAD SWAP1 JUMP JUMPDEST PUSH1 0x40 DUP1 MLOAD PUSH1 0x1 PUSH1 0x1 PUSH1 0xA0 SHL SUB DUP6 DUP2 AND PUSH1 0x24 DUP4 ADD MSTORE DUP5 AND PUSH1 0x44 DUP3 ADD MSTORE PUSH1 0x64 DUP1 DUP3 ADD DUP5 SWAP1 MSTORE DUP3 MLOAD DUP1 DUP4 SUB SWAP1 SWAP2 ADD DUP2 MSTORE PUSH1 0x84 SWAP1 SWAP2 ADD SWAP1 SWAP2 MSTORE PUSH1 0x20 DUP2 ADD DUP1 MLOAD PUSH28 0xFFFFFFFFFFFFFFFFFFFFFFFFFFFFFFFFFFFFFFFFFFFFFFFFFFFFFFFF AND PUSH32 0x23B872DD00000000000000000000000000000000000000000000000000000000 OR SWAP1 MSTORE PUSH2 0xCFB SWAP1 DUP6 SWAP1 PUSH2 0xD01 JUMP JUMPDEST POP POP POP POP JUMP JUMPDEST PUSH1 0x0 PUSH2 0xD56 DUP3 PUSH1 0x40 MLOAD DUP1 PUSH1 0x40 ADD PUSH1 0x40 MSTORE DUP1 PUSH1 0x20 DUP2 MSTORE PUSH1 0x20 ADD PUSH32 0x5361666545524332303A206C6F772D6C6576656C2063616C6C206661696C6564 DUP2 MSTORE POP DUP6 PUSH1 0x1 PUSH1 0x1 PUSH1 0xA0 SHL SUB AND PUSH2 0xDEE SWAP1 SWAP3 SWAP2 SWAP1 PUSH4 0xFFFFFFFF AND JUMP JUMPDEST SWAP1 POP DUP1 MLOAD PUSH1 0x0 EQ DUP1 PUSH2 0xD77 JUMPI POP DUP1 DUP1 PUSH1 0x20 ADD SWAP1 MLOAD DUP2 ADD SWAP1 PUSH2 0xD77 SWAP2 SWAP1 PUSH2 0x12DE JUMP JUMPDEST PUSH2 0xDE9 JUMPI PUSH1 0x40 MLOAD PUSH3 0x461BCD PUSH1 0xE5 SHL DUP2 MSTORE PUSH1 0x20 PUSH1 0x4 DUP3 ADD MSTORE PUSH1 0x2A PUSH1 0x24 DUP3 ADD MSTORE PUSH32 0x5361666545524332303A204552433230206F7065726174696F6E20646964206E PUSH1 0x44 DUP3 ADD MSTORE PUSH32 0x6F74207375636365656400000000000000000000000000000000000000000000 PUSH1 0x64 DUP3 ADD MSTORE PUSH1 0x84 ADD PUSH2 0x2E6 JUMP JUMPDEST POP POP POP JUMP JUMPDEST PUSH1 0x60 PUSH2 0xDFD DUP5 DUP5 PUSH1 0x0 DUP6 PUSH2 0xE05 JUMP JUMPDEST SWAP5 SWAP4 POP POP POP POP JUMP JUMPDEST PUSH1 0x60 DUP3 SELFBALANCE LT ISZERO PUSH2 0xE7D JUMPI PUSH1 0x40 MLOAD PUSH3 0x461BCD PUSH1 0xE5 SHL DUP2 MSTORE PUSH1 0x20 PUSH1 0x4 DUP3 ADD MSTORE PUSH1 0x26 PUSH1 0x24 DUP3 ADD MSTORE PUSH32 0x416464726573733A20696E73756666696369656E742062616C616E636520666F PUSH1 0x44 DUP3 ADD MSTORE PUSH32 0x722063616C6C0000000000000000000000000000000000000000000000000000 PUSH1 0x64 DUP3 ADD MSTORE PUSH1 0x84 ADD PUSH2 0x2E6 JUMP JUMPDEST PUSH1 0x0 DUP1 DUP7 PUSH1 0x1 PUSH1 0x1 PUSH1 0xA0 SHL SUB AND DUP6 DUP8 PUSH1 0x40 MLOAD PUSH2 0xE99 SWAP2 SWAP1 PUSH2 0x131F JUMP JUMPDEST PUSH1 0x0 PUSH1 0x40 MLOAD DUP1 DUP4 SUB DUP2 DUP6 DUP8 GAS CALL SWAP3 POP POP POP RETURNDATASIZE DUP1 PUSH1 0x0 DUP2 EQ PUSH2 0xED6 JUMPI PUSH1 0x40 MLOAD SWAP2 POP PUSH1 0x1F NOT PUSH1 0x3F RETURNDATASIZE ADD AND DUP3 ADD PUSH1 0x40 MSTORE RETURNDATASIZE DUP3 MSTORE RETURNDATASIZE PUSH1 0x0 PUSH1 0x20 DUP5 ADD RETURNDATACOPY PUSH2 0xEDB JUMP JUMPDEST PUSH1 0x60 SWAP2 POP JUMPDEST POP SWAP2 POP SWAP2 POP PUSH2 0xEEC DUP8 DUP4 DUP4 DUP8 PUSH2 0xEF7 JUMP JUMPDEST SWAP8 SWAP7 POP POP POP POP POP POP POP JUMP JUMPDEST PUSH1 0x60 DUP4 ISZERO PUSH2 0xF66 JUMPI DUP3 MLOAD PUSH1 0x0 SUB PUSH2 0xF5F JUMPI PUSH1 0x1 PUSH1 0x1 PUSH1 0xA0 SHL SUB DUP6 AND EXTCODESIZE PUSH2 0xF5F JUMPI PUSH1 0x40 MLOAD PUSH3 0x461BCD PUSH1 0xE5 SHL DUP2 MSTORE PUSH1 0x20 PUSH1 0x4 DUP3 ADD MSTORE PUSH1 0x1D PUSH1 0x24 DUP3 ADD MSTORE PUSH32 0x416464726573733A2063616C6C20746F206E6F6E2D636F6E7472616374000000 PUSH1 0x44 DUP3 ADD MSTORE PUSH1 0x64 ADD PUSH2 0x2E6 JUMP JUMPDEST POP DUP2 PUSH2 0xDFD JUMP JUMPDEST PUSH2 0xDFD DUP4 DUP4 DUP2 MLOAD ISZERO PUSH2 0xF7B JUMPI DUP2 MLOAD DUP1 DUP4 PUSH1 0x20 ADD REVERT JUMPDEST DUP1 PUSH1 0x40 MLOAD PUSH3 0x461BCD PUSH1 0xE5 SHL DUP2 MSTORE PUSH1 0x4 ADD PUSH2 0x2E6 SWAP2 SWAP1 PUSH2 0x133B JUMP JUMPDEST PUSH1 0x0 DUP1 DUP4 PUSH1 0x1F DUP5 ADD SLT PUSH2 0xFA7 JUMPI PUSH1 0x0 DUP1 REVERT JUMPDEST POP DUP2 CALLDATALOAD PUSH8 0xFFFFFFFFFFFFFFFF DUP2 GT ISZERO PUSH2 0xFBF JUMPI PUSH1 0x0 DUP1 REVERT JUMPDEST PUSH1 0x20 DUP4 ADD SWAP2 POP DUP4 PUSH1 0x20 DUP3 DUP6 ADD ADD GT ISZERO PUSH2 0xFD7 JUMPI PUSH1 0x0 DUP1 REVERT JUMPDEST SWAP3 POP SWAP3 SWAP1 POP JUMP JUMPDEST DUP1 CALLDATALOAD PUSH1 0x1 PUSH1 0x1 PUSH1 0xA0 SHL SUB DUP2 AND DUP2 EQ PUSH2 0xFF5 JUMPI PUSH1 0x0 DUP1 REVERT JUMPDEST SWAP2 SWAP1 POP JUMP JUMPDEST PUSH1 0x0 DUP1 PUSH1 0x0 PUSH1 0x40 DUP5 DUP7 SUB SLT ISZERO PUSH2 0x100F JUMPI PUSH1 0x0 DUP1 REVERT JUMPDEST DUP4 CALLDATALOAD PUSH8 0xFFFFFFFFFFFFFFFF DUP2 GT ISZERO PUSH2 0x1026 JUMPI PUSH1 0x0 DUP1 REVERT JUMPDEST PUSH2 0x1032 DUP7 DUP3 DUP8 ADD PUSH2 0xF95 JUMP JUMPDEST SWAP1 SWAP5 POP SWAP3 POP PUSH2 0x1045 SWAP1 POP PUSH1 0x20 DUP6 ADD PUSH2 0xFDE JUMP JUMPDEST SWAP1 POP SWAP3 POP SWAP3 POP SWAP3 JUMP JUMPDEST PUSH1 0x0 DUP1 PUSH1 0x20 DUP4 DUP6 SUB SLT ISZERO PUSH2 0x1061 JUMPI PUSH1 0x0 DUP1 REVERT JUMPDEST DUP3 CALLDATALOAD PUSH8 0xFFFFFFFFFFFFFFFF DUP2 GT ISZERO PUSH2 0x1078 JUMPI PUSH1 0x0 DUP1 REVERT JUMPDEST PUSH2 0x1084 DUP6 DUP3 DUP7 ADD PUSH2 0xF95 JUMP JUMPDEST SWAP1 SWAP7 SWAP1 SWAP6 POP SWAP4 POP POP POP POP JUMP JUMPDEST PUSH32 0x4E487B7100000000000000000000000000000000000000000000000000000000 PUSH1 0x0 MSTORE PUSH1 0x41 PUSH1 0x4 MSTORE PUSH1 0x24 PUSH1 0x0 REVERT JUMPDEST PUSH1 0x0 PUSH1 0x20 DUP3 DUP5 SUB SLT ISZERO PUSH2 0x10D1 JUMPI PUSH1 0x0 DUP1 REVERT JUMPDEST DUP2 CALLDATALOAD PUSH8 0xFFFFFFFFFFFFFFFF DUP1 DUP3 GT ISZERO PUSH2 0x10E9 JUMPI PUSH1 0x0 DUP1 REVERT JUMPDEST DUP2 DUP5 ADD SWAP2 POP DUP5 PUSH1 0x1F DUP4 ADD SLT PUSH2 0x10FD JUMPI PUSH1 0x0 DUP1 REVERT JUMPDEST DUP2 CALLDATALOAD DUP2 DUP2 GT ISZERO PUSH2 0x110F JUMPI PUSH2 0x110F PUSH2 0x1090 JUMP JUMPDEST PUSH1 0x40 MLOAD PUSH1 0x1F DUP3 ADD PUSH1 0x1F NOT SWAP1 DUP2 AND PUSH1 0x3F ADD AND DUP2 ADD SWAP1 DUP4 DUP3 GT DUP2 DUP4 LT OR ISZERO PUSH2 0x1137 JUMPI PUSH2 0x1137 PUSH2 0x1090 JUMP JUMPDEST DUP2 PUSH1 0x40 MSTORE DUP3 DUP2 MSTORE DUP8 PUSH1 0x20 DUP5 DUP8 ADD ADD GT ISZERO PUSH2 0x1150 JUMPI PUSH1 0x0 DUP1 REVERT JUMPDEST DUP3 PUSH1 0x20 DUP7 ADD PUSH1 0x20 DUP4 ADD CALLDATACOPY PUSH1 0x0 SWAP3 DUP2 ADD PUSH1 0x20 ADD SWAP3 SWAP1 SWAP3 MSTORE POP SWAP6 SWAP5 POP POP POP POP POP JUMP JUMPDEST DUP1 ISZERO ISZERO DUP2 EQ PUSH2 0x853 JUMPI PUSH1 0x0 DUP1 REVERT JUMPDEST PUSH1 0x0 DUP1 PUSH1 0x0 DUP1 PUSH1 0x0 DUP1 PUSH1 0x0 DUP1 PUSH1 0x0 PUSH1 0xE0 DUP11 DUP13 SUB SLT ISZERO PUSH2 0x119C JUMPI PUSH1 0x0 DUP1 REVERT JUMPDEST DUP10 CALLDATALOAD PUSH8 0xFFFFFFFFFFFFFFFF DUP1 DUP3 GT ISZERO PUSH2 0x11B4 JUMPI PUSH1 0x0 DUP1 REVERT JUMPDEST PUSH2 0x11C0 DUP14 DUP4 DUP15 ADD PUSH2 0xF95 JUMP JUMPDEST SWAP1 SWAP12 POP SWAP10 POP PUSH1 0x20 DUP13 ADD CALLDATALOAD SWAP2 POP DUP1 DUP3 GT ISZERO PUSH2 0x11D9 JUMPI PUSH1 0x0 DUP1 REVERT JUMPDEST POP PUSH2 0x11E6 DUP13 DUP3 DUP14 ADD PUSH2 0xF95 JUMP JUMPDEST SWAP1 SWAP9 POP SWAP7 POP POP PUSH1 0x40 DUP11 ADD CALLDATALOAD SWAP5 POP PUSH1 0x60 DUP11 ADD CALLDATALOAD SWAP4 POP PUSH1 0x80 DUP11 ADD CALLDATALOAD SWAP3 POP PUSH1 0xA0 DUP11 ADD CALLDATALOAD PUSH2 0x120F DUP2 PUSH2 0x1170 JUMP JUMPDEST SWAP2 POP PUSH1 0xC0 DUP11 ADD CALLDATALOAD PUSH2 0x121F DUP2 PUSH2 0x1170 JUMP JUMPDEST DUP1 SWAP2 POP POP SWAP3 SWAP6 SWAP9 POP SWAP3 SWAP6 SWAP9 POP SWAP3 SWAP6 SWAP9 JUMP JUMPDEST PUSH1 0x0 PUSH1 0x20 DUP3 DUP5 SUB SLT ISZERO PUSH2 0x1242 JUMPI PUSH1 0x0 DUP1 REVERT JUMPDEST PUSH2 0x707 DUP3 PUSH2 0xFDE JUMP JUMPDEST DUP2 DUP4 DUP3 CALLDATACOPY PUSH1 0x0 SWAP2 ADD SWAP1 DUP2 MSTORE SWAP2 SWAP1 POP JUMP JUMPDEST PUSH1 0x0 PUSH1 0x20 DUP3 DUP5 SUB SLT ISZERO PUSH2 0x126D JUMPI PUSH1 0x0 DUP1 REVERT JUMPDEST DUP2 MLOAD PUSH1 0xFF DUP2 AND DUP2 EQ PUSH2 0x707 JUMPI PUSH1 0x0 DUP1 REVERT JUMPDEST PUSH1 0x1 PUSH1 0x1 PUSH1 0xA0 SHL SUB DUP9 AND DUP2 MSTORE PUSH1 0xC0 PUSH1 0x20 DUP3 ADD MSTORE DUP6 PUSH1 0xC0 DUP3 ADD MSTORE DUP6 DUP8 PUSH1 0xE0 DUP4 ADD CALLDATACOPY PUSH1 0x0 PUSH1 0xE0 DUP8 DUP4 ADD ADD MSTORE PUSH1 0x0 PUSH1 0xE0 PUSH1 0x1F NOT PUSH1 0x1F DUP10 ADD AND DUP4 ADD ADD SWAP1 POP DUP6 PUSH1 0x40 DUP4 ADD MSTORE DUP5 PUSH1 0x60 DUP4 ADD MSTORE DUP4 PUSH1 0x80 DUP4 ADD MSTORE DUP3 ISZERO ISZERO PUSH1 0xA0 DUP4 ADD MSTORE SWAP9 SWAP8 POP POP POP POP POP POP POP POP JUMP JUMPDEST PUSH1 0x0 PUSH1 0x20 DUP3 DUP5 SUB SLT ISZERO PUSH2 0x12F0 JUMPI PUSH1 0x0 DUP1 REVERT JUMPDEST DUP2 MLOAD PUSH2 0x707 DUP2 PUSH2 0x1170 JUMP JUMPDEST PUSH1 0x0 JUMPDEST DUP4 DUP2 LT ISZERO PUSH2 0x1316 JUMPI DUP2 DUP2 ADD MLOAD DUP4 DUP3 ADD MSTORE PUSH1 0x20 ADD PUSH2 0x12FE JUMP JUMPDEST POP POP PUSH1 0x0 SWAP2 ADD MSTORE JUMP JUMPDEST PUSH1 0x0 DUP3 MLOAD PUSH2 0x1331 DUP2 DUP5 PUSH1 0x20 DUP8 ADD PUSH2 0x12FB JUMP JUMPDEST SWAP2 SWAP1 SWAP2 ADD SWAP3 SWAP2 POP POP JUMP JUMPDEST PUSH1 0x20 DUP2 MSTORE PUSH1 0x0 DUP3 MLOAD DUP1 PUSH1 0x20 DUP5 ADD MSTORE PUSH2 0x135A DUP2 PUSH1 0x40 DUP6 ADD PUSH1 0x20 DUP8 ADD PUSH2 0x12FB JUMP JUMPDEST PUSH1 0x1F ADD PUSH1 0x1F NOT AND SWAP2 SWAP1 SWAP2 ADD PUSH1 0x40 ADD SWAP3 SWAP2 POP POP JUMP INVALID LOG2 PUSH5 0x6970667358 0x22 SLT KECCAK256 0x22 0xE6 LOG4 DUP4 SWAP2 BYTE CALLER 0xEE CALLDATALOAD CALLER CALLER DUP12 NUMBER 0xD4 GAS 0x4C 0xDF COINBASE CHAINID 0x2C DUP15 0xB3 0xAD MSTORE8 0xC0 PUSH4 0xB0581143 0x21 DELEGATECALL PUSH5 0x736F6C6343 STOP ADDMOD SGT STOP CALLER "},"methodIdentifiers":{"adapterFee(string)":"bad50a47","adapterRemoved(string)":"b5268389","adapters(string)":"b84f5d1e","owner()":"8da5cb5b","pauseSwaps()":"558b7dd1","paused()":"5c975abb","removeAdapter(string)":"3ef11fd7","renounceOwnership()":"715018a6","setAdapter(string,address)":"39122461","swap(string,bytes,uint256,uint256,uint256,bool,bool)":"bd134899","transferOwnership(address)":"f2fde38b","unpauseSwaps()":"9804a380"}}}}}