{
  "_format": "hh-sol-artifact-1",
  "contractName": "HeliSwapAdapter",
  "sourceName": "contracts/adapters/HeliSwapAdapter.sol",
  "abi": [
    {
      "inputs": [
        {
          "internalType": "address payable",
          "name": "_feeWallet",
          "type": "address"
        },
        {
          "internalType": "contract IHeliSwapRouter",
          "name": "_router",
          "type": "address"
        },
        {
          "internalType": "uint8",
          "name": "_feePromille",
          "type": "uint8"
        },
        {
          "internalType": "contract IERC20",
          "name": "_whbarToken",
          "type": "address"
        },
        {
          "internalType": "contract IWHBAR",
          "name": "_whbarContract",
          "type": "address"
        }
      ],
      "stateMutability": "nonpayable",
      "type": "constructor"
    },
    {
      "anonymous": false,
      "inputs": [
        {
          "indexed": true,
          "internalType": "address",
          "name": "previousOwner",
          "type": "address"
        },
        {
          "indexed": true,
          "internalType": "address",
          "name": "newOwner",
          "type": "address"
        }
      ],
      "name": "OwnershipTransferred",
      "type": "event"
    },
    {
      "stateMutability": "payable",
      "type": "fallback"
    },
    {
      "inputs": [],
      "name": "feePromille",
      "outputs": [
        {
          "internalType": "uint8",
          "name": "",
          "type": "uint8"
        }
      ],
      "stateMutability": "view",
      "type": "function"
    },
    {
      "inputs": [],
      "name": "feeWallet",
      "outputs": [
        {
          "internalType": "address payable",
          "name": "",
          "type": "address"
        }
      ],
      "stateMutability": "view",
      "type": "function"
    },
    {
      "inputs": [],
      "name": "owner",
      "outputs": [
        {
          "internalType": "address",
          "name": "",
          "type": "address"
        }
      ],
      "stateMutability": "view",
      "type": "function"
    },
    {
      "inputs": [],
      "name": "renounceOwnership",
      "outputs": [],
      "stateMutability": "nonpayable",
      "type": "function"
    },
    {
      "inputs": [],
      "name": "router",
      "outputs": [
        {
          "internalType": "contract IHeliSwapRouter",
          "name": "",
          "type": "address"
        }
      ],
      "stateMutability": "view",
      "type": "function"
    },
    {
      "inputs": [
        {
          "internalType": "uint8",
          "name": "_feePromille",
          "type": "uint8"
        }
      ],
      "name": "setFeePromille",
      "outputs": [],
      "stateMutability": "nonpayable",
      "type": "function"
    },
    {
      "inputs": [
        {
          "internalType": "address payable",
          "name": "recipient",
          "type": "address"
        },
        {
          "internalType": "contract IERC20",
          "name": "tokenFrom",
          "type": "address"
        },
        {
          "internalType": "bytes",
          "name": "pathEncode",
          "type": "bytes"
        },
        {
          "internalType": "uint256",
          "name": "amountFrom",
          "type": "uint256"
        },
        {
          "internalType": "uint256",
          "name": "amountTo",
          "type": "uint256"
        },
        {
          "internalType": "uint256",
          "name": "deadline",
          "type": "uint256"
        },
        {
          "internalType": "bool",
          "name": "feeOnTransfer",
          "type": "bool"
        }
      ],
      "name": "swap",
      "outputs": [],
      "stateMutability": "payable",
      "type": "function"
    },
    {
      "inputs": [
        {
          "internalType": "address",
          "name": "newOwner",
          "type": "address"
        }
      ],
      "name": "transferOwnership",
      "outputs": [],
      "stateMutability": "nonpayable",
      "type": "function"
    },
    {
      "inputs": [],
      "name": "whbarContract",
      "outputs": [
        {
          "internalType": "contract IWHBAR",
          "name": "",
          "type": "address"
        }
      ],
      "stateMutability": "view",
      "type": "function"
    },
    {
      "inputs": [],
      "name": "whbarToken",
      "outputs": [
        {
          "internalType": "contract IERC20",
          "name": "",
          "type": "address"
        }
      ],
      "stateMutability": "view",
      "type": "function"
    },
    {
      "stateMutability": "payable",
      "type": "receive"
    }
  ],
  "bytecode": "0x60c06040523480156200001157600080fd5b506040516200167238038062001672833981016040819052620000349162000104565b6200003f336200009b565b6001600160a01b0394851660a0529284166080526000805460ff909316600160a01b0260ff60a01b1990931692909217909155600180549184166001600160a01b03199283161790556002805492909316911617905562000189565b600080546001600160a01b038381166001600160a01b0319831681178455604051919092169283917f8be0079c531659141344cd1fd0a4f28419497f9722a3daafe3b4186f6b6457e09190a35050565b6001600160a01b03811681146200010157600080fd5b50565b600080600080600060a086880312156200011d57600080fd5b85516200012a81620000eb565b60208701519095506200013d81620000eb565b604087015190945060ff811681146200015557600080fd5b60608701519093506200016881620000eb565b60808701519092506200017b81620000eb565b809150509295509295909350565b60805160a051611476620001fc600039600081816101b601526102fd01526000818161020a015281816104080152818161051101528181610569015281816105f30152818161064b015281816106c801528181610781015281816107d60152818161086001526108b501526114766000f3fe6080604052600436106100a95760003560e01c8063dc3ef68511610063578063f25f4b561161004b578063f25f4b56146101a4578063f2fde38b146101d8578063f887ea40146101f857005b8063dc3ef68514610151578063e5d128551461018457005b80639ce9b91d116100915780639ce9b91d146100fe578063a691744214610111578063be7dd9821461013157005b8063715018a6146100b25780638da5cb5b146100c757005b366100b057005b005b3480156100be57600080fd5b506100b061022c565b3480156100d357600080fd5b506000546001600160a01b03165b6040516001600160a01b0390911681526020015b60405180910390f35b6100b061010c36600461104b565b610240565b34801561011d57600080fd5b506002546100e1906001600160a01b031681565b34801561013d57600080fd5b506100b061014c366004611110565b610971565b34801561015d57600080fd5b5060005461017290600160a01b900460ff1681565b60405160ff90911681526020016100f5565b34801561019057600080fd5b506001546100e1906001600160a01b031681565b3480156101b057600080fd5b506100e17f000000000000000000000000000000000000000000000000000000000000000081565b3480156101e457600080fd5b506100b06101f336600461113a565b6109b4565b34801561020457600080fd5b506100e17f000000000000000000000000000000000000000000000000000000000000000081565b610234610a44565b61023e6000610a9e565b565b600061024e86880188611157565b915050806001600160a01b0316886001600160a01b0316036102b75760405162461bcd60e51b815260206004820152601b60248201527f457461537761703a20544f4b454e5f504149525f494e56414c4944000000000060448201526064015b60405180910390fd5b600080546103e890600160a01b900460ff166001600160a01b038b16156102de57876102e0565b345b6102ea91906111a6565b6102f491906111c3565b905061032189827f0000000000000000000000000000000000000000000000000000000000000000610b06565b6040805160028082526060820183526000926020830190803683370190505090506001600160a01b038a16156103575789610364565b6001546001600160a01b03165b81600081518110610377576103776111fb565b6001600160a01b03928316602091820292909201015283161561039a57826103a7565b6001546001600160a01b03165b816001815181106103ba576103ba6111fb565b6001600160a01b03928316602091820292909201015260009083908c16156103e257886103e4565b345b6103ee9190611211565b90508415610688576001600160a01b038b166104fd5760007f00000000000000000000000000000000000000000000000000000000000000006001600160a01b031663c2beaed7838a86308c6040518663ffffffff1660e01b81526004016104599493929190611268565b60006040518083038185885af1158015610477573d6000803e3d6000fd5b50505050506040513d6000823e601f3d908101601f191682016040526104a0919081019061129d565b90506104c785826001815181106104b9576104b96111fb565b60200260200101518f610b06565b6104f78c826000815181106104de576104de6111fb565b6020026020010151846104f19190611211565b8f610b06565b50610963565b6001600160a01b0384166105ed576105368b7f000000000000000000000000000000000000000000000000000000000000000083610bf6565b6040517f7ce8b0180000000000000000000000000000000000000000000000000000000081526000906001600160a01b037f00000000000000000000000000000000000000000000000000000000000000001690637ce8b018906105a6908b908690889030908e9060040161135b565b6000604051808303816000875af11580156105c5573d6000803e3d6000fd5b505050506040513d6000823e601f3d908101601f191682016040526104a0919081019061129d565b6106188b7f000000000000000000000000000000000000000000000000000000000000000083610bf6565b6040517f8803dbee0000000000000000000000000000000000000000000000000000000081526000906001600160a01b037f00000000000000000000000000000000000000000000000000000000000000001690638803dbee906105a6908b908690889030908e9060040161135b565b60006001600160a01b038c1661076d576040517feed017e50000000000000000000000000000000000000000000000000000000081526001600160a01b037f0000000000000000000000000000000000000000000000000000000000000000169063eed017e5908490610705908c90889030908e90600401611268565b60006040518083038185885af1158015610723573d6000803e3d6000fd5b50505050506040513d6000823e601f3d908101601f1916820160405261074c919081019061129d565b60018151811061075e5761075e6111fb565b60200260200101519050610956565b6001600160a01b03851661085a576107a68c7f000000000000000000000000000000000000000000000000000000000000000084610bf6565b6040517f85e9ec8e0000000000000000000000000000000000000000000000000000000081526001600160a01b037f000000000000000000000000000000000000000000000000000000000000000016906385e9ec8e906108139085908c90889030908e9060040161135b565b6000604051808303816000875af1158015610832573d6000803e3d6000fd5b505050506040513d6000823e601f3d908101601f1916820160405261074c919081019061129d565b6108858c7f000000000000000000000000000000000000000000000000000000000000000084610bf6565b6040517f38ed17390000000000000000000000000000000000000000000000000000000081526001600160a01b037f000000000000000000000000000000000000000000000000000000000000000016906338ed1739906108f29085908c90889030908e9060040161135b565b6000604051808303816000875af1158015610911573d6000803e3d6000fd5b505050506040513d6000823e601f3d908101601f19168201604052610939919081019061129d565b60018151811061094b5761094b6111fb565b602002602001015190505b61096185828f610b06565b505b505050505050505050505050565b610979610a44565b6000805460ff909216600160a01b027fffffffffffffffffffffff00ffffffffffffffffffffffffffffffffffffffff909216919091179055565b6109bc610a44565b6001600160a01b038116610a385760405162461bcd60e51b815260206004820152602660248201527f4f776e61626c653a206e6577206f776e657220697320746865207a65726f206160448201527f646472657373000000000000000000000000000000000000000000000000000060648201526084016102ae565b610a4181610a9e565b50565b6000546001600160a01b0316331461023e5760405162461bcd60e51b815260206004820181905260248201527f4f776e61626c653a2063616c6c6572206973206e6f7420746865206f776e657260448201526064016102ae565b600080546001600160a01b038381167fffffffffffffffffffffffff0000000000000000000000000000000000000000831681178455604051919092169283917f8be0079c531659141344cd1fd0a4f28419497f9722a3daafe3b4186f6b6457e09190a35050565b8115610bf1576001600160a01b038316610bdd57604080516000808252602082019092526001600160a01b038316908490604051610b4491906113bb565b60006040518083038185875af1925050503d8060008114610b81576040519150601f19603f3d011682016040523d82523d6000602084013e610b86565b606091505b5050905080610bd75760405162461bcd60e51b815260206004820152601d60248201527f457461537761703a20484241525f5452414e534645525f4641494c454400000060448201526064016102ae565b50505050565b610bf16001600160a01b0384168284610d20565b505050565b6040517fdd62ed3e0000000000000000000000000000000000000000000000000000000081523060048201526001600160a01b0383811660248301526000919085169063dd62ed3e90604401602060405180830381865afa158015610c5f573d6000803e3d6000fd5b505050506040513d601f19601f82011682018060405250810190610c8391906113d7565b905081811015610bd7576040517f095ea7b30000000000000000000000000000000000000000000000000000000081526001600160a01b0384811660048301526024820184905285169063095ea7b3906044016020604051808303816000875af1158015610cf5573d6000803e3d6000fd5b505050506040513d601f19601f82011682018060405250810190610d1991906113f0565b5050505050565b604080516001600160a01b03848116602483015260448083018590528351808403909101815260649092018352602080830180517bffffffffffffffffffffffffffffffffffffffffffffffffffffffff167fa9059cbb0000000000000000000000000000000000000000000000000000000017905283518085019094528084527f5361666545524332303a206c6f772d6c6576656c2063616c6c206661696c656490840152610bf192869291600091610dde918516908490610e71565b9050805160001480610dff575080806020019051810190610dff91906113f0565b610bf15760405162461bcd60e51b815260206004820152602a60248201527f5361666545524332303a204552433230206f7065726174696f6e20646964206e60448201527f6f7420737563636565640000000000000000000000000000000000000000000060648201526084016102ae565b6060610e808484600085610e88565b949350505050565b606082471015610f005760405162461bcd60e51b815260206004820152602660248201527f416464726573733a20696e73756666696369656e742062616c616e636520666f60448201527f722063616c6c000000000000000000000000000000000000000000000000000060648201526084016102ae565b600080866001600160a01b03168587604051610f1c91906113bb565b60006040518083038185875af1925050503d8060008114610f59576040519150601f19603f3d011682016040523d82523d6000602084013e610f5e565b606091505b5091509150610f6f87838387610f7a565b979650505050505050565b60608315610fe9578251600003610fe2576001600160a01b0385163b610fe25760405162461bcd60e51b815260206004820152601d60248201527f416464726573733a2063616c6c20746f206e6f6e2d636f6e747261637400000060448201526064016102ae565b5081610e80565b610e808383815115610ffe5781518083602001fd5b8060405162461bcd60e51b81526004016102ae919061140d565b6001600160a01b0381168114610a4157600080fd5b8015158114610a4157600080fd5b80356110468161102d565b919050565b60008060008060008060008060e0898b03121561106757600080fd5b883561107281611018565b9750602089013561108281611018565b9650604089013567ffffffffffffffff8082111561109f57600080fd5b818b0191508b601f8301126110b357600080fd5b8135818111156110c257600080fd5b8c60208285010111156110d457600080fd5b602083019850809750505050606089013593506080890135925060a0890135915061110160c08a0161103b565b90509295985092959890939650565b60006020828403121561112257600080fd5b813560ff8116811461113357600080fd5b9392505050565b60006020828403121561114c57600080fd5b813561113381611018565b6000806040838503121561116a57600080fd5b823561117581611018565b9150602083013561118581611018565b809150509250929050565b634e487b7160e01b600052601160045260246000fd5b80820281158282048414176111bd576111bd611190565b92915050565b6000826111e057634e487b7160e01b600052601260045260246000fd5b500490565b634e487b7160e01b600052604160045260246000fd5b634e487b7160e01b600052603260045260246000fd5b818103818111156111bd576111bd611190565b600081518084526020808501945080840160005b8381101561125d5781516001600160a01b031687529582019590820190600101611238565b509495945050505050565b8481526080602082015260006112816080830186611224565b6001600160a01b03949094166040830152506060015292915050565b600060208083850312156112b057600080fd5b825167ffffffffffffffff808211156112c857600080fd5b818501915085601f8301126112dc57600080fd5b8151818111156112ee576112ee6111e5565b8060051b604051601f19603f83011681018181108582111715611313576113136111e5565b60405291825284820192508381018501918883111561133157600080fd5b938501935b8285101561134f57845184529385019392850192611336565b98975050505050505050565b85815284602082015260a06040820152600061137a60a0830186611224565b6001600160a01b0394909416606083015250608001529392505050565b60005b838110156113b257818101518382015260200161139a565b50506000910152565b600082516113cd818460208701611397565b9190910192915050565b6000602082840312156113e957600080fd5b5051919050565b60006020828403121561140257600080fd5b81516111338161102d565b602081526000825180602084015261142c816040850160208701611397565b601f01601f1916919091016040019291505056fea2646970667358221220aa04ba86ca0411eecb5062ebf65c231eb86fa5f2dec8e881afac3bd40473fe2a64736f6c63430008130033",
  "linkReferences": {},
  "deployedLinkReferences": {}
}