{
  "_format": "hh-sol-artifact-1",
  "contractName": "PangolinAdapter",
  "sourceName": "contracts/adapters/PangolinAdapter.sol",
  "abi": [
    {
      "inputs": [
        {
          "internalType": "address payable",
          "name": "_feeWallet",
          "type": "address"
        },
        {
          "internalType": "contract IPangolinRouter",
          "name": "_router",
          "type": "address"
        },
        {
          "internalType": "uint8",
          "name": "_feePromille",
          "type": "uint8"
        },
        {
          "internalType": "contract IERC20",
          "name": "_whbarToken",
          "type": "address"
        },
        {
          "internalType": "contract IWHBAR",
          "name": "_whbarContract",
          "type": "address"
        }
      ],
      "stateMutability": "nonpayable",
      "type": "constructor"
    },
    {
      "anonymous": false,
      "inputs": [
        {
          "indexed": true,
          "internalType": "address",
          "name": "previousOwner",
          "type": "address"
        },
        {
          "indexed": true,
          "internalType": "address",
          "name": "newOwner",
          "type": "address"
        }
      ],
      "name": "OwnershipTransferred",
      "type": "event"
    },
    {
      "stateMutability": "payable",
      "type": "fallback"
    },
    {
      "inputs": [],
      "name": "feePromille",
      "outputs": [
        {
          "internalType": "uint8",
          "name": "",
          "type": "uint8"
        }
      ],
      "stateMutability": "view",
      "type": "function"
    },
    {
      "inputs": [],
      "name": "feeWallet",
      "outputs": [
        {
          "internalType": "address payable",
          "name": "",
          "type": "address"
        }
      ],
      "stateMutability": "view",
      "type": "function"
    },
    {
      "inputs": [],
      "name": "owner",
      "outputs": [
        {
          "internalType": "address",
          "name": "",
          "type": "address"
        }
      ],
      "stateMutability": "view",
      "type": "function"
    },
    {
      "inputs": [],
      "name": "renounceOwnership",
      "outputs": [],
      "stateMutability": "nonpayable",
      "type": "function"
    },
    {
      "inputs": [],
      "name": "router",
      "outputs": [
        {
          "internalType": "contract IPangolinRouter",
          "name": "",
          "type": "address"
        }
      ],
      "stateMutability": "view",
      "type": "function"
    },
    {
      "inputs": [
        {
          "internalType": "uint8",
          "name": "_feePromille",
          "type": "uint8"
        }
      ],
      "name": "setFeePromille",
      "outputs": [],
      "stateMutability": "nonpayable",
      "type": "function"
    },
    {
      "inputs": [
        {
          "internalType": "address payable",
          "name": "recipient",
          "type": "address"
        },
        {
          "internalType": "contract IERC20",
          "name": "tokenFrom",
          "type": "address"
        },
        {
          "internalType": "bytes",
          "name": "pathEncode",
          "type": "bytes"
        },
        {
          "internalType": "uint256",
          "name": "amountFrom",
          "type": "uint256"
        },
        {
          "internalType": "uint256",
          "name": "amountTo",
          "type": "uint256"
        },
        {
          "internalType": "uint256",
          "name": "deadline",
          "type": "uint256"
        },
        {
          "internalType": "bool",
          "name": "feeOnTransfer",
          "type": "bool"
        }
      ],
      "name": "swap",
      "outputs": [],
      "stateMutability": "payable",
      "type": "function"
    },
    {
      "inputs": [
        {
          "internalType": "address",
          "name": "newOwner",
          "type": "address"
        }
      ],
      "name": "transferOwnership",
      "outputs": [],
      "stateMutability": "nonpayable",
      "type": "function"
    },
    {
      "inputs": [],
      "name": "whbarContract",
      "outputs": [
        {
          "internalType": "contract IWHBAR",
          "name": "",
          "type": "address"
        }
      ],
      "stateMutability": "view",
      "type": "function"
    },
    {
      "inputs": [],
      "name": "whbarToken",
      "outputs": [
        {
          "internalType": "contract IERC20",
          "name": "",
          "type": "address"
        }
      ],
      "stateMutability": "view",
      "type": "function"
    },
    {
      "stateMutability": "payable",
      "type": "receive"
    }
  ],
  "bytecode": "0x60c06040523480156200001157600080fd5b50604051620017e5380380620017e5833981016040819052620000349162000104565b6200003f336200009b565b6001600160a01b0394851660a0529284166080526000805460ff909316600160a01b0260ff60a01b1990931692909217909155600180549184166001600160a01b03199283161790556002805492909316911617905562000189565b600080546001600160a01b038381166001600160a01b0319831681178455604051919092169283917f8be0079c531659141344cd1fd0a4f28419497f9722a3daafe3b4186f6b6457e09190a35050565b6001600160a01b03811681146200010157600080fd5b50565b600080600080600060a086880312156200011d57600080fd5b85516200012a81620000eb565b60208701519095506200013d81620000eb565b604087015190945060ff811681146200015557600080fd5b60608701519093506200016881620000eb565b60808701519092506200017b81620000eb565b809150509295509295909350565b60805160a0516115e9620001fc600039600081816101b601526102fd01526000818161020a015281816104080152818161051101528181610550015281816106b1015281816106f0015281816107b40152818161086d015281816108a9015281816109ec0152610a2801526115e96000f3fe6080604052600436106100a95760003560e01c8063dc3ef68511610063578063f25f4b561161004b578063f25f4b56146101a4578063f2fde38b146101d8578063f887ea40146101f857005b8063dc3ef68514610151578063e5d128551461018457005b80639ce9b91d116100915780639ce9b91d146100fe578063a691744214610111578063be7dd9821461013157005b8063715018a6146100b25780638da5cb5b146100c757005b366100b057005b005b3480156100be57600080fd5b506100b061022c565b3480156100d357600080fd5b506000546001600160a01b03165b6040516001600160a01b0390911681526020015b60405180910390f35b6100b061010c3660046111be565b610240565b34801561011d57600080fd5b506002546100e1906001600160a01b031681565b34801561013d57600080fd5b506100b061014c366004611283565b610ae4565b34801561015d57600080fd5b5060005461017290600160a01b900460ff1681565b60405160ff90911681526020016100f5565b34801561019057600080fd5b506001546100e1906001600160a01b031681565b3480156101b057600080fd5b506100e17f000000000000000000000000000000000000000000000000000000000000000081565b3480156101e457600080fd5b506100b06101f33660046112ad565b610b27565b34801561020457600080fd5b506100e17f000000000000000000000000000000000000000000000000000000000000000081565b610234610bb7565b61023e6000610c11565b565b600061024e868801886112ca565b915050806001600160a01b0316886001600160a01b0316036102b75760405162461bcd60e51b815260206004820152601b60248201527f457461537761703a20544f4b454e5f504149525f494e56414c4944000000000060448201526064015b60405180910390fd5b600080546103e890600160a01b900460ff166001600160a01b038b16156102de57876102e0565b345b6102ea9190611319565b6102f49190611336565b905061032189827f0000000000000000000000000000000000000000000000000000000000000000610c79565b6040805160028082526060820183526000926020830190803683370190505090506001600160a01b038a16156103575789610364565b6001546001600160a01b03165b816000815181106103775761037761136e565b6001600160a01b03928316602091820292909201015283161561039a57826103a7565b6001546001600160a01b03165b816001815181106103ba576103ba61136e565b6001600160a01b03928316602091820292909201015260009083908c16156103e257886103e4565b345b6103ee9190611384565b90508415610774576001600160a01b038b166104fd5760007f00000000000000000000000000000000000000000000000000000000000000006001600160a01b0316638a657e67838a86308c6040518663ffffffff1660e01b815260040161045994939291906113db565b60006040518083038185885af1158015610477573d6000803e3d6000fd5b50505050506040513d6000823e601f3d908101601f191682016040526104a09190810190611410565b90506104c785826001815181106104b9576104b961136e565b60200260200101518f610c79565b6104f78c826000815181106104de576104de61136e565b6020026020010151846104f19190611384565b8f610c79565b50610ad6565b6001600160a01b0384166106ab576105368b7f000000000000000000000000000000000000000000000000000000000000000083610d69565b604051634401edf760e11b81526000906001600160a01b037f00000000000000000000000000000000000000000000000000000000000000001690638803dbee9061058d908b908690889030908e906004016114ce565b6000604051808303816000875af11580156105ac573d6000803e3d6000fd5b505050506040513d6000823e601f3d908101601f191682016040526105d49190810190611410565b600180546002548351939450610612936001600160a01b03928316939290911691859181106106055761060561136e565b6020026020010151610d69565b60025481516001600160a01b0390911690632e1a7d4d908390600190811061063c5761063c61136e565b60200260200101516040518263ffffffff1660e01b815260040161066291815260200190565b600060405180830381600087803b15801561067c57600080fd5b505af1158015610690573d6000803e3d6000fd5b505050506104c785826001815181106104b9576104b961136e565b6106d68b7f000000000000000000000000000000000000000000000000000000000000000083610d69565b604051634401edf760e11b81526000906001600160a01b037f00000000000000000000000000000000000000000000000000000000000000001690638803dbee9061072d908b908690889030908e906004016114ce565b6000604051808303816000875af115801561074c573d6000803e3d6000fd5b505050506040513d6000823e601f3d908101601f191682016040526104a09190810190611410565b60006001600160a01b038c16610859576040517fa2a1623d0000000000000000000000000000000000000000000000000000000081526001600160a01b037f0000000000000000000000000000000000000000000000000000000000000000169063a2a1623d9084906107f1908c90889030908e906004016113db565b60006040518083038185885af115801561080f573d6000803e3d6000fd5b50505050506040513d6000823e601f3d908101601f191682016040526108389190810190611410565b60018151811061084a5761084a61136e565b60200260200101519050610ac9565b6001600160a01b0385166109e6576108928c7f000000000000000000000000000000000000000000000000000000000000000084610d69565b6040516338ed173960e01b81526001600160a01b037f000000000000000000000000000000000000000000000000000000000000000016906338ed1739906108e69085908c90889030908e906004016114ce565b6000604051808303816000875af1158015610905573d6000803e3d6000fd5b505050506040513d6000823e601f3d908101601f1916820160405261092d9190810190611410565b60018151811061093f5761093f61136e565b602090810291909101015160015460025491925061096a916001600160a01b03918216911683610d69565b6002546040517f2e1a7d4d000000000000000000000000000000000000000000000000000000008152600481018390526001600160a01b0390911690632e1a7d4d90602401600060405180830381600087803b1580156109c957600080fd5b505af11580156109dd573d6000803e3d6000fd5b50505050610ac9565b610a118c7f000000000000000000000000000000000000000000000000000000000000000084610d69565b6040516338ed173960e01b81526001600160a01b037f000000000000000000000000000000000000000000000000000000000000000016906338ed173990610a659085908c90889030908e906004016114ce565b6000604051808303816000875af1158015610a84573d6000803e3d6000fd5b505050506040513d6000823e601f3d908101601f19168201604052610aac9190810190611410565b600181518110610abe57610abe61136e565b602002602001015190505b610ad485828f610c79565b505b505050505050505050505050565b610aec610bb7565b6000805460ff909216600160a01b027fffffffffffffffffffffff00ffffffffffffffffffffffffffffffffffffffff909216919091179055565b610b2f610bb7565b6001600160a01b038116610bab5760405162461bcd60e51b815260206004820152602660248201527f4f776e61626c653a206e6577206f776e657220697320746865207a65726f206160448201527f646472657373000000000000000000000000000000000000000000000000000060648201526084016102ae565b610bb481610c11565b50565b6000546001600160a01b0316331461023e5760405162461bcd60e51b815260206004820181905260248201527f4f776e61626c653a2063616c6c6572206973206e6f7420746865206f776e657260448201526064016102ae565b600080546001600160a01b038381167fffffffffffffffffffffffff0000000000000000000000000000000000000000831681178455604051919092169283917f8be0079c531659141344cd1fd0a4f28419497f9722a3daafe3b4186f6b6457e09190a35050565b8115610d64576001600160a01b038316610d5057604080516000808252602082019092526001600160a01b038316908490604051610cb7919061152e565b60006040518083038185875af1925050503d8060008114610cf4576040519150601f19603f3d011682016040523d82523d6000602084013e610cf9565b606091505b5050905080610d4a5760405162461bcd60e51b815260206004820152601d60248201527f457461537761703a20484241525f5452414e534645525f4641494c454400000060448201526064016102ae565b50505050565b610d646001600160a01b0384168284610e93565b505050565b6040517fdd62ed3e0000000000000000000000000000000000000000000000000000000081523060048201526001600160a01b0383811660248301526000919085169063dd62ed3e90604401602060405180830381865afa158015610dd2573d6000803e3d6000fd5b505050506040513d601f19601f82011682018060405250810190610df6919061154a565b905081811015610d4a576040517f095ea7b30000000000000000000000000000000000000000000000000000000081526001600160a01b0384811660048301526024820184905285169063095ea7b3906044016020604051808303816000875af1158015610e68573d6000803e3d6000fd5b505050506040513d601f19601f82011682018060405250810190610e8c9190611563565b5050505050565b604080516001600160a01b03848116602483015260448083018590528351808403909101815260649092018352602080830180517bffffffffffffffffffffffffffffffffffffffffffffffffffffffff167fa9059cbb0000000000000000000000000000000000000000000000000000000017905283518085019094528084527f5361666545524332303a206c6f772d6c6576656c2063616c6c206661696c656490840152610d6492869291600091610f51918516908490610fe4565b9050805160001480610f72575080806020019051810190610f729190611563565b610d645760405162461bcd60e51b815260206004820152602a60248201527f5361666545524332303a204552433230206f7065726174696f6e20646964206e60448201527f6f7420737563636565640000000000000000000000000000000000000000000060648201526084016102ae565b6060610ff38484600085610ffb565b949350505050565b6060824710156110735760405162461bcd60e51b815260206004820152602660248201527f416464726573733a20696e73756666696369656e742062616c616e636520666f60448201527f722063616c6c000000000000000000000000000000000000000000000000000060648201526084016102ae565b600080866001600160a01b0316858760405161108f919061152e565b60006040518083038185875af1925050503d80600081146110cc576040519150601f19603f3d011682016040523d82523d6000602084013e6110d1565b606091505b50915091506110e2878383876110ed565b979650505050505050565b6060831561115c578251600003611155576001600160a01b0385163b6111555760405162461bcd60e51b815260206004820152601d60248201527f416464726573733a2063616c6c20746f206e6f6e2d636f6e747261637400000060448201526064016102ae565b5081610ff3565b610ff383838151156111715781518083602001fd5b8060405162461bcd60e51b81526004016102ae9190611580565b6001600160a01b0381168114610bb457600080fd5b8015158114610bb457600080fd5b80356111b9816111a0565b919050565b60008060008060008060008060e0898b0312156111da57600080fd5b88356111e58161118b565b975060208901356111f58161118b565b9650604089013567ffffffffffffffff8082111561121257600080fd5b818b0191508b601f83011261122657600080fd5b81358181111561123557600080fd5b8c602082850101111561124757600080fd5b602083019850809750505050606089013593506080890135925060a0890135915061127460c08a016111ae565b90509295985092959890939650565b60006020828403121561129557600080fd5b813560ff811681146112a657600080fd5b9392505050565b6000602082840312156112bf57600080fd5b81356112a68161118b565b600080604083850312156112dd57600080fd5b82356112e88161118b565b915060208301356112f88161118b565b809150509250929050565b634e487b7160e01b600052601160045260246000fd5b808202811582820484141761133057611330611303565b92915050565b60008261135357634e487b7160e01b600052601260045260246000fd5b500490565b634e487b7160e01b600052604160045260246000fd5b634e487b7160e01b600052603260045260246000fd5b8181038181111561133057611330611303565b600081518084526020808501945080840160005b838110156113d05781516001600160a01b0316875295820195908201906001016113ab565b509495945050505050565b8481526080602082015260006113f46080830186611397565b6001600160a01b03949094166040830152506060015292915050565b6000602080838503121561142357600080fd5b825167ffffffffffffffff8082111561143b57600080fd5b818501915085601f83011261144f57600080fd5b81518181111561146157611461611358565b8060051b604051601f19603f8301168101818110858211171561148657611486611358565b6040529182528482019250838101850191888311156114a457600080fd5b938501935b828510156114c2578451845293850193928501926114a9565b98975050505050505050565b85815284602082015260a0604082015260006114ed60a0830186611397565b6001600160a01b0394909416606083015250608001529392505050565b60005b8381101561152557818101518382015260200161150d565b50506000910152565b6000825161154081846020870161150a565b9190910192915050565b60006020828403121561155c57600080fd5b5051919050565b60006020828403121561157557600080fd5b81516112a6816111a0565b602081526000825180602084015261159f81604085016020870161150a565b601f01601f1916919091016040019291505056fea26469706673582212200d1ea89489993592c8ec6fc1b593879e26092e7bc1493d3486651947a37fd81664736f6c63430008130033",
  "linkReferences": {},
  "deployedLinkReferences": {}
}