{
  "_format": "hh-sol-artifact-1",
  "contractName": "PangolinAdapter",
  "sourceName": "contracts/adapters/PangolinAdapter.sol",
  "abi": [
    {
      "inputs": [
        {
          "internalType": "address payable",
          "name": "_feeWallet",
          "type": "address"
        },
        {
          "internalType": "contract IPangolinRouter",
          "name": "_router",
          "type": "address"
        },
        {
          "internalType": "uint8",
          "name": "_feePromille",
          "type": "uint8"
        },
        {
          "internalType": "contract IERC20",
          "name": "_whbarToken",
          "type": "address"
        },
        {
          "internalType": "contract IWHBAR",
          "name": "_whbarContract",
          "type": "address"
        }
      ],
      "stateMutability": "nonpayable",
      "type": "constructor"
    },
    {
      "anonymous": false,
      "inputs": [
        {
          "indexed": true,
          "internalType": "address",
          "name": "previousOwner",
          "type": "address"
        },
        {
          "indexed": true,
          "internalType": "address",
          "name": "newOwner",
          "type": "address"
        }
      ],
      "name": "OwnershipTransferred",
      "type": "event"
    },
    {
      "stateMutability": "payable",
      "type": "fallback"
    },
    {
      "inputs": [],
      "name": "feePromille",
      "outputs": [
        {
          "internalType": "uint8",
          "name": "",
          "type": "uint8"
        }
      ],
      "stateMutability": "view",
      "type": "function"
    },
    {
      "inputs": [],
      "name": "feeWallet",
      "outputs": [
        {
          "internalType": "address payable",
          "name": "",
          "type": "address"
        }
      ],
      "stateMutability": "view",
      "type": "function"
    },
    {
      "inputs": [],
      "name": "owner",
      "outputs": [
        {
          "internalType": "address",
          "name": "",
          "type": "address"
        }
      ],
      "stateMutability": "view",
      "type": "function"
    },
    {
      "inputs": [],
      "name": "renounceOwnership",
      "outputs": [],
      "stateMutability": "nonpayable",
      "type": "function"
    },
    {
      "inputs": [],
      "name": "router",
      "outputs": [
        {
          "internalType": "contract IPangolinRouter",
          "name": "",
          "type": "address"
        }
      ],
      "stateMutability": "view",
      "type": "function"
    },
    {
      "inputs": [
        {
          "internalType": "uint8",
          "name": "_feePromille",
          "type": "uint8"
        }
      ],
      "name": "setFeePromille",
      "outputs": [],
      "stateMutability": "nonpayable",
      "type": "function"
    },
    {
      "inputs": [
        {
          "internalType": "address payable",
          "name": "recipient",
          "type": "address"
        },
        {
          "internalType": "contract IERC20",
          "name": "tokenFrom",
          "type": "address"
        },
        {
          "internalType": "contract IERC20",
          "name": "tokenTo",
          "type": "address"
        },
        {
          "internalType": "uint256",
          "name": "amountFrom",
          "type": "uint256"
        },
        {
          "internalType": "uint256",
          "name": "amountTo",
          "type": "uint256"
        },
        {
          "internalType": "uint256",
          "name": "deadline",
          "type": "uint256"
        },
        {
          "internalType": "bool",
          "name": "feeOnTransfer",
          "type": "bool"
        }
      ],
      "name": "swap",
      "outputs": [],
      "stateMutability": "payable",
      "type": "function"
    },
    {
      "inputs": [
        {
          "internalType": "address",
          "name": "newOwner",
          "type": "address"
        }
      ],
      "name": "transferOwnership",
      "outputs": [],
      "stateMutability": "nonpayable",
      "type": "function"
    },
    {
      "inputs": [],
      "name": "whbarContract",
      "outputs": [
        {
          "internalType": "contract IWHBAR",
          "name": "",
          "type": "address"
        }
      ],
      "stateMutability": "view",
      "type": "function"
    },
    {
      "inputs": [],
      "name": "whbarToken",
      "outputs": [
        {
          "internalType": "contract IERC20",
          "name": "",
          "type": "address"
        }
      ],
      "stateMutability": "view",
      "type": "function"
    },
    {
      "stateMutability": "payable",
      "type": "receive"
    }
  ],
  "bytecode": "0x60c06040523480156200001157600080fd5b506040516200173f3803806200173f833981016040819052620000349162000104565b6200003f336200009b565b6001600160a01b0394851660a0529284166080526000805460ff909316600160a01b0260ff60a01b1990931692909217909155600180549184166001600160a01b03199283161790556002805492909316911617905562000189565b600080546001600160a01b038381166001600160a01b0319831681178455604051919092169283917f8be0079c531659141344cd1fd0a4f28419497f9722a3daafe3b4186f6b6457e09190a35050565b6001600160a01b03811681146200010157600080fd5b50565b600080600080600060a086880312156200011d57600080fd5b85516200012a81620000eb565b60208701519095506200013d81620000eb565b604087015190945060ff811681146200015557600080fd5b60608701519093506200016881620000eb565b60808701519092506200017b81620000eb565b809150509295509295909350565b60805160a051611543620001fc600039600081816101b601526102ec01526000818161020a015281816103f7015281816105000152818161053f015281816106a0015281816106df015281816107a30152818161085c01528181610898015281816109db0152610a1701526115436000f3fe6080604052600436106100a95760003560e01c8063dc3ef68511610063578063f25f4b561161004b578063f25f4b56146101a4578063f2fde38b146101d8578063f887ea40146101f857005b8063dc3ef68514610151578063e5d128551461018457005b80638da5cb5b116100915780638da5cb5b146100da578063a691744214610111578063be7dd9821461013157005b8063715018a6146100b257806377e38966146100c757005b366100b057005b005b3480156100be57600080fd5b506100b061022c565b6100b06100d536600461119b565b610240565b3480156100e657600080fd5b506000546001600160a01b03165b6040516001600160a01b0390911681526020015b60405180910390f35b34801561011d57600080fd5b506002546100f4906001600160a01b031681565b34801561013d57600080fd5b506100b061014c366004611216565b610ad1565b34801561015d57600080fd5b5060005461017290600160a01b900460ff1681565b60405160ff9091168152602001610108565b34801561019057600080fd5b506001546100f4906001600160a01b031681565b3480156101b057600080fd5b506100f47f000000000000000000000000000000000000000000000000000000000000000081565b3480156101e457600080fd5b506100b06101f3366004611240565b610b14565b34801561020457600080fd5b506100f47f000000000000000000000000000000000000000000000000000000000000000081565b610234610ba4565b61023e6000610bfe565b565b846001600160a01b0316866001600160a01b0316036102a65760405162461bcd60e51b815260206004820152601b60248201527f457461537761703a20544f4b454e5f504149525f494e56414c4944000000000060448201526064015b60405180910390fd5b600080546103e890600160a01b900460ff166001600160a01b038916156102cd57866102cf565b345b6102d99190611273565b6102e39190611290565b905061031087827f0000000000000000000000000000000000000000000000000000000000000000610c66565b6040805160028082526060820183526000926020830190803683370190505090506001600160a01b038816156103465787610353565b6001546001600160a01b03165b81600081518110610366576103666112c8565b6001600160a01b0392831660209182029290920101528716156103895786610396565b6001546001600160a01b03165b816001815181106103a9576103a96112c8565b6001600160a01b03928316602091820292909201015260009083908a16156103d157876103d3565b345b6103dd91906112de565b90508315610763576001600160a01b0389166104ec5760007f00000000000000000000000000000000000000000000000000000000000000006001600160a01b0316638a657e67838986308b6040518663ffffffff1660e01b81526004016104489493929190611335565b60006040518083038185885af1158015610466573d6000803e3d6000fd5b50505050506040513d6000823e601f3d908101601f1916820160405261048f919081019061136a565b90506104b689826001815181106104a8576104a86112c8565b60200260200101518d610c66565b6104e68a826000815181106104cd576104cd6112c8565b6020026020010151846104e091906112de565b8d610c66565b50610ac5565b6001600160a01b03881661069a57610525897f000000000000000000000000000000000000000000000000000000000000000083610d56565b604051634401edf760e11b81526000906001600160a01b037f00000000000000000000000000000000000000000000000000000000000000001690638803dbee9061057c908a908690889030908d90600401611428565b6000604051808303816000875af115801561059b573d6000803e3d6000fd5b505050506040513d6000823e601f3d908101601f191682016040526105c3919081019061136a565b600180546002548351939450610601936001600160a01b03928316939290911691859181106105f4576105f46112c8565b6020026020010151610d56565b60025481516001600160a01b0390911690632e1a7d4d908390600190811061062b5761062b6112c8565b60200260200101516040518263ffffffff1660e01b815260040161065191815260200190565b600060405180830381600087803b15801561066b57600080fd5b505af115801561067f573d6000803e3d6000fd5b505050506104b689826001815181106104a8576104a86112c8565b6106c5897f000000000000000000000000000000000000000000000000000000000000000083610d56565b604051634401edf760e11b81526000906001600160a01b037f00000000000000000000000000000000000000000000000000000000000000001690638803dbee9061071c908a908690889030908d90600401611428565b6000604051808303816000875af115801561073b573d6000803e3d6000fd5b505050506040513d6000823e601f3d908101601f1916820160405261048f919081019061136a565b60006001600160a01b038a16610848576040517fa2a1623d0000000000000000000000000000000000000000000000000000000081526001600160a01b037f0000000000000000000000000000000000000000000000000000000000000000169063a2a1623d9084906107e0908b90889030908d90600401611335565b60006040518083038185885af11580156107fe573d6000803e3d6000fd5b50505050506040513d6000823e601f3d908101601f19168201604052610827919081019061136a565b600181518110610839576108396112c8565b60200260200101519050610ab8565b6001600160a01b0389166109d5576108818a7f000000000000000000000000000000000000000000000000000000000000000084610d56565b6040516338ed173960e01b81526001600160a01b037f000000000000000000000000000000000000000000000000000000000000000016906338ed1739906108d59085908b90889030908d90600401611428565b6000604051808303816000875af11580156108f4573d6000803e3d6000fd5b505050506040513d6000823e601f3d908101601f1916820160405261091c919081019061136a565b60018151811061092e5761092e6112c8565b6020908102919091010151600154600254919250610959916001600160a01b03918216911683610d56565b6002546040517f2e1a7d4d000000000000000000000000000000000000000000000000000000008152600481018390526001600160a01b0390911690632e1a7d4d90602401600060405180830381600087803b1580156109b857600080fd5b505af11580156109cc573d6000803e3d6000fd5b50505050610ab8565b610a008a7f000000000000000000000000000000000000000000000000000000000000000084610d56565b6040516338ed173960e01b81526001600160a01b037f000000000000000000000000000000000000000000000000000000000000000016906338ed173990610a549085908b90889030908d90600401611428565b6000604051808303816000875af1158015610a73573d6000803e3d6000fd5b505050506040513d6000823e601f3d908101601f19168201604052610a9b919081019061136a565b600181518110610aad57610aad6112c8565b602002602001015190505b610ac389828d610c66565b505b50505050505050505050565b610ad9610ba4565b6000805460ff909216600160a01b027fffffffffffffffffffffff00ffffffffffffffffffffffffffffffffffffffff909216919091179055565b610b1c610ba4565b6001600160a01b038116610b985760405162461bcd60e51b815260206004820152602660248201527f4f776e61626c653a206e6577206f776e657220697320746865207a65726f206160448201527f6464726573730000000000000000000000000000000000000000000000000000606482015260840161029d565b610ba181610bfe565b50565b6000546001600160a01b0316331461023e5760405162461bcd60e51b815260206004820181905260248201527f4f776e61626c653a2063616c6c6572206973206e6f7420746865206f776e6572604482015260640161029d565b600080546001600160a01b038381167fffffffffffffffffffffffff0000000000000000000000000000000000000000831681178455604051919092169283917f8be0079c531659141344cd1fd0a4f28419497f9722a3daafe3b4186f6b6457e09190a35050565b8115610d51576001600160a01b038316610d3d57604080516000808252602082019092526001600160a01b038316908490604051610ca49190611488565b60006040518083038185875af1925050503d8060008114610ce1576040519150601f19603f3d011682016040523d82523d6000602084013e610ce6565b606091505b5050905080610d375760405162461bcd60e51b815260206004820152601d60248201527f457461537761703a20484241525f5452414e534645525f4641494c4544000000604482015260640161029d565b50505050565b610d516001600160a01b0384168284610e80565b505050565b6040517fdd62ed3e0000000000000000000000000000000000000000000000000000000081523060048201526001600160a01b0383811660248301526000919085169063dd62ed3e90604401602060405180830381865afa158015610dbf573d6000803e3d6000fd5b505050506040513d601f19601f82011682018060405250810190610de391906114a4565b905081811015610d37576040517f095ea7b30000000000000000000000000000000000000000000000000000000081526001600160a01b0384811660048301526024820184905285169063095ea7b3906044016020604051808303816000875af1158015610e55573d6000803e3d6000fd5b505050506040513d601f19601f82011682018060405250810190610e7991906114bd565b5050505050565b604080516001600160a01b03848116602483015260448083018590528351808403909101815260649092018352602080830180517bffffffffffffffffffffffffffffffffffffffffffffffffffffffff167fa9059cbb0000000000000000000000000000000000000000000000000000000017905283518085019094528084527f5361666545524332303a206c6f772d6c6576656c2063616c6c206661696c656490840152610d5192869291600091610f3e918516908490610fd1565b9050805160001480610f5f575080806020019051810190610f5f91906114bd565b610d515760405162461bcd60e51b815260206004820152602a60248201527f5361666545524332303a204552433230206f7065726174696f6e20646964206e60448201527f6f74207375636365656400000000000000000000000000000000000000000000606482015260840161029d565b6060610fe08484600085610fe8565b949350505050565b6060824710156110605760405162461bcd60e51b815260206004820152602660248201527f416464726573733a20696e73756666696369656e742062616c616e636520666f60448201527f722063616c6c0000000000000000000000000000000000000000000000000000606482015260840161029d565b600080866001600160a01b0316858760405161107c9190611488565b60006040518083038185875af1925050503d80600081146110b9576040519150601f19603f3d011682016040523d82523d6000602084013e6110be565b606091505b50915091506110cf878383876110da565b979650505050505050565b60608315611149578251600003611142576001600160a01b0385163b6111425760405162461bcd60e51b815260206004820152601d60248201527f416464726573733a2063616c6c20746f206e6f6e2d636f6e7472616374000000604482015260640161029d565b5081610fe0565b610fe0838381511561115e5781518083602001fd5b8060405162461bcd60e51b815260040161029d91906114da565b6001600160a01b0381168114610ba157600080fd5b8015158114610ba157600080fd5b600080600080600080600060e0888a0312156111b657600080fd5b87356111c181611178565b965060208801356111d181611178565b955060408801356111e181611178565b9450606088013593506080880135925060a0880135915060c08801356112068161118d565b8091505092959891949750929550565b60006020828403121561122857600080fd5b813560ff8116811461123957600080fd5b9392505050565b60006020828403121561125257600080fd5b813561123981611178565b634e487b7160e01b600052601160045260246000fd5b808202811582820484141761128a5761128a61125d565b92915050565b6000826112ad57634e487b7160e01b600052601260045260246000fd5b500490565b634e487b7160e01b600052604160045260246000fd5b634e487b7160e01b600052603260045260246000fd5b8181038181111561128a5761128a61125d565b600081518084526020808501945080840160005b8381101561132a5781516001600160a01b031687529582019590820190600101611305565b509495945050505050565b84815260806020820152600061134e60808301866112f1565b6001600160a01b03949094166040830152506060015292915050565b6000602080838503121561137d57600080fd5b825167ffffffffffffffff8082111561139557600080fd5b818501915085601f8301126113a957600080fd5b8151818111156113bb576113bb6112b2565b8060051b604051601f19603f830116810181811085821117156113e0576113e06112b2565b6040529182528482019250838101850191888311156113fe57600080fd5b938501935b8285101561141c57845184529385019392850192611403565b98975050505050505050565b85815284602082015260a06040820152600061144760a08301866112f1565b6001600160a01b0394909416606083015250608001529392505050565b60005b8381101561147f578181015183820152602001611467565b50506000910152565b6000825161149a818460208701611464565b9190910192915050565b6000602082840312156114b657600080fd5b5051919050565b6000602082840312156114cf57600080fd5b81516112398161118d565b60208152600082518060208401526114f9816040850160208701611464565b601f01601f1916919091016040019291505056fea26469706673582212206e7d6408a0bd04bfef4a72e7882203e93b0e8157215c2b1be1c004afd296bb2864736f6c63430008130033",
  "linkReferences": {},
  "deployedLinkReferences": {}
}