{
  "_format": "hh-sol-artifact-1",
  "contractName": "HeliSwapOracle",
  "sourceName": "contracts/oracles/HeliSwap.sol",
  "abi": [
    {
      "inputs": [
        {
          "internalType": "address",
          "name": "_factory",
          "type": "address"
        }
      ],
      "stateMutability": "nonpayable",
      "type": "constructor"
    },
    {
      "inputs": [],
      "name": "factory",
      "outputs": [
        {
          "internalType": "address",
          "name": "",
          "type": "address"
        }
      ],
      "stateMutability": "view",
      "type": "function"
    },
    {
      "inputs": [
        {
          "internalType": "contract IERC20",
          "name": "srcToken",
          "type": "address"
        },
        {
          "internalType": "contract IERC20",
          "name": "dstToken",
          "type": "address"
        }
      ],
      "name": "getRate",
      "outputs": [
        {
          "internalType": "uint256",
          "name": "rate",
          "type": "uint256"
        },
        {
          "internalType": "uint256",
          "name": "weight",
          "type": "uint256"
        }
      ],
      "stateMutability": "view",
      "type": "function"
    }
  ],
  "bytecode": "0x60a060405234801561001057600080fd5b5060405161053d38038061053d83398101604081905261002f91610040565b6001600160a01b0316608052610070565b60006020828403121561005257600080fd5b81516001600160a01b038116811461006957600080fd5b9392505050565b6080516104ac61009160003960008181606d01526102c301526104ac6000f3fe608060405234801561001057600080fd5b50600436106100365760003560e01c8063379b87ea1461003b578063c45a015514610068575b600080fd5b61004e61004936600461034f565b6100a7565b604080519283526020830191909152015b60405180910390f35b61008f7f000000000000000000000000000000000000000000000000000000000000000081565b6040516001600160a01b03909116815260200161005f565b6000806000806100b78686610107565b90925090506100ce6100c98284610388565b610222565b9250816000036100df5760006100fc565b816100f282670de0b6b3a7640000610388565b6100fc91906103c9565b935050509250929050565b600080600080846001600160a01b0316866001600160a01b03161061012d578486610130565b85855b9150915060006101408383610280565b9050806001600160a01b03163b600003610163576000809450945050505061021b565b600080826001600160a01b0316630902f1ac6040518163ffffffff1660e01b8152600401606060405180830381865afa1580156101a4573d6000803e3d6000fd5b505050506040513d601f19601f820116820180604052508101906101c89190610409565b506dffffffffffffffffffffffffffff1691506dffffffffffffffffffffffffffff169150846001600160a01b0316896001600160a01b03161461020d578082610210565b81815b909750955050505050505b9250929050565b60006003821115610271575080600160028204015b8181101561026b57809150600281828581610254576102546103b3565b040181610263576102636103b3565b049050610237565b50919050565b811561027b575060015b919050565b6040517fe6a439050000000000000000000000000000000000000000000000000000000081526001600160a01b03838116600483015282811660248301526000917f00000000000000000000000000000000000000000000000000000000000000009091169063e6a4390590604401602060405180830381865afa15801561030c573d6000803e3d6000fd5b505050506040513d601f19601f820116820180604052508101906103309190610459565b9392505050565b6001600160a01b038116811461034c57600080fd5b50565b6000806040838503121561036257600080fd5b823561036d81610337565b9150602083013561037d81610337565b809150509250929050565b80820281158282048414176103ad57634e487b7160e01b600052601160045260246000fd5b92915050565b634e487b7160e01b600052601260045260246000fd5b6000826103e657634e487b7160e01b600052601260045260246000fd5b500490565b80516dffffffffffffffffffffffffffff8116811461027b57600080fd5b60008060006060848603121561041e57600080fd5b610427846103eb565b9250610435602085016103eb565b9150604084015163ffffffff8116811461044e57600080fd5b809150509250925092565b60006020828403121561046b57600080fd5b81516103308161033756fea26469706673582212203773ee16bfc29320393f78f3bdfd3fa7a0d9486d94daf861302c82f164a340cd64736f6c63430008130033",
  "linkReferences": {},
  "deployedLinkReferences": {}
}